{
  "_format": "hh-sol-artifact-1",
  "contractName": "AIRDROP",
  "sourceName": "contracts/Airdrop.sol",
  "abi": [
    {
      "inputs": [],
      "stateMutability": "nonpayable",
      "type": "constructor"
    },
    {
      "inputs": [],
      "name": "ApprovalCallerNotOwnerNorApproved",
      "type": "error"
    },
    {
      "inputs": [],
      "name": "ApprovalQueryForNonexistentToken",
      "type": "error"
    },
    {
      "inputs": [],
      "name": "BalanceQueryForZeroAddress",
      "type": "error"
    },
    {
      "inputs": [],
      "name": "MintERC2309QuantityExceedsLimit",
      "type": "error"
    },
    {
      "inputs": [],
      "name": "MintToZeroAddress",
      "type": "error"
    },
    {
      "inputs": [],
      "name": "MintZeroQuantity",
      "type": "error"
    },
    {
      "inputs": [],
      "name": "OwnerQueryForNonexistentToken",
      "type": "error"
    },
    {
      "inputs": [],
      "name": "OwnershipNotInitializedForExtraData",
      "type": "error"
    },
    {
      "inputs": [],
      "name": "TransferCallerNotOwnerNorApproved",
      "type": "error"
    },
    {
      "inputs": [],
      "name": "TransferFromIncorrectOwner",
      "type": "error"
    },
    {
      "inputs": [],
      "name": "TransferToNonERC721ReceiverImplementer",
      "type": "error"
    },
    {
      "inputs": [],
      "name": "TransferToZeroAddress",
      "type": "error"
    },
    {
      "inputs": [],
      "name": "URIQueryForNonexistentToken",
      "type": "error"
    },
    {
      "anonymous": false,
      "inputs": [
        {
          "indexed": true,
          "internalType": "address",
          "name": "owner",
          "type": "address"
        },
        {
          "indexed": true,
          "internalType": "address",
          "name": "approved",
          "type": "address"
        },
        {
          "indexed": true,
          "internalType": "uint256",
          "name": "tokenId",
          "type": "uint256"
        }
      ],
      "name": "Approval",
      "type": "event"
    },
    {
      "anonymous": false,
      "inputs": [
        {
          "indexed": true,
          "internalType": "address",
          "name": "owner",
          "type": "address"
        },
        {
          "indexed": true,
          "internalType": "address",
          "name": "operator",
          "type": "address"
        },
        {
          "indexed": false,
          "internalType": "bool",
          "name": "approved",
          "type": "bool"
        }
      ],
      "name": "ApprovalForAll",
      "type": "event"
    },
    {
      "anonymous": false,
      "inputs": [
        {
          "indexed": true,
          "internalType": "uint256",
          "name": "fromTokenId",
          "type": "uint256"
        },
        {
          "indexed": false,
          "internalType": "uint256",
          "name": "toTokenId",
          "type": "uint256"
        },
        {
          "indexed": true,
          "internalType": "address",
          "name": "from",
          "type": "address"
        },
        {
          "indexed": true,
          "internalType": "address",
          "name": "to",
          "type": "address"
        }
      ],
      "name": "ConsecutiveTransfer",
      "type": "event"
    },
    {
      "anonymous": false,
      "inputs": [
        {
          "indexed": true,
          "internalType": "address",
          "name": "previousOwner",
          "type": "address"
        },
        {
          "indexed": true,
          "internalType": "address",
          "name": "newOwner",
          "type": "address"
        }
      ],
      "name": "OwnershipTransferred",
      "type": "event"
    },
    {
      "anonymous": false,
      "inputs": [
        {
          "indexed": true,
          "internalType": "address",
          "name": "from",
          "type": "address"
        },
        {
          "indexed": true,
          "internalType": "address",
          "name": "to",
          "type": "address"
        },
        {
          "indexed": true,
          "internalType": "uint256",
          "name": "tokenId",
          "type": "uint256"
        }
      ],
      "name": "Transfer",
      "type": "event"
    },
    {
      "inputs": [
        {
          "internalType": "address",
          "name": "from",
          "type": "address"
        },
        {
          "internalType": "address",
          "name": "to",
          "type": "address"
        },
        {
          "internalType": "uint256",
          "name": "tokenId",
          "type": "uint256"
        }
      ],
      "name": "_transferFrom",
      "outputs": [],
      "stateMutability": "nonpayable",
      "type": "function"
    },
    {
      "inputs": [
        {
          "internalType": "address",
          "name": "to",
          "type": "address"
        },
        {
          "internalType": "uint256",
          "name": "tokenId",
          "type": "uint256"
        }
      ],
      "name": "approve",
      "outputs": [],
      "stateMutability": "payable",
      "type": "function"
    },
    {
      "inputs": [
        {
          "internalType": "address",
          "name": "owner",
          "type": "address"
        }
      ],
      "name": "balanceOf",
      "outputs": [
        {
          "internalType": "uint256",
          "name": "",
          "type": "uint256"
        }
      ],
      "stateMutability": "view",
      "type": "function"
    },
    {
      "inputs": [
        {
          "internalType": "address",
          "name": "",
          "type": "address"
        }
      ],
      "name": "claimed",
      "outputs": [
        {
          "internalType": "bool",
          "name": "",
          "type": "bool"
        }
      ],
      "stateMutability": "view",
      "type": "function"
    },
    {
      "inputs": [
        {
          "internalType": "uint256",
          "name": "_tokenId",
          "type": "uint256"
        }
      ],
      "name": "claimedRewards",
      "outputs": [],
      "stateMutability": "nonpayable",
      "type": "function"
    },
    {
      "inputs": [],
      "name": "cost",
      "outputs": [
        {
          "internalType": "uint256",
          "name": "",
          "type": "uint256"
        }
      ],
      "stateMutability": "view",
      "type": "function"
    },
    {
      "inputs": [
        {
          "internalType": "uint256",
          "name": "_mintAmount",
          "type": "uint256"
        }
      ],
      "name": "creditCard",
      "outputs": [],
      "stateMutability": "nonpayable",
      "type": "function"
    },
    {
      "inputs": [
        {
          "internalType": "uint256",
          "name": "tokenId",
          "type": "uint256"
        }
      ],
      "name": "getApproved",
      "outputs": [
        {
          "internalType": "address",
          "name": "",
          "type": "address"
        }
      ],
      "stateMutability": "view",
      "type": "function"
    },
    {
      "inputs": [
        {
          "internalType": "address",
          "name": "owner",
          "type": "address"
        },
        {
          "internalType": "address",
          "name": "operator",
          "type": "address"
        }
      ],
      "name": "isApprovedForAll",
      "outputs": [
        {
          "internalType": "bool",
          "name": "",
          "type": "bool"
        }
      ],
      "stateMutability": "view",
      "type": "function"
    },
    {
      "inputs": [],
      "name": "maxSupply",
      "outputs": [
        {
          "internalType": "uint256",
          "name": "",
          "type": "uint256"
        }
      ],
      "stateMutability": "view",
      "type": "function"
    },
    {
      "inputs": [],
      "name": "merkleRoot",
      "outputs": [
        {
          "internalType": "bytes32",
          "name": "",
          "type": "bytes32"
        }
      ],
      "stateMutability": "view",
      "type": "function"
    },
    {
      "inputs": [
        {
          "internalType": "uint256",
          "name": "_mintAmount",
          "type": "uint256"
        },
        {
          "internalType": "address",
          "name": "_receiver",
          "type": "address"
        }
      ],
      "name": "mintForAddress",
      "outputs": [],
      "stateMutability": "nonpayable",
      "type": "function"
    },
    {
      "inputs": [],
      "name": "name",
      "outputs": [
        {
          "internalType": "string",
          "name": "",
          "type": "string"
        }
      ],
      "stateMutability": "view",
      "type": "function"
    },
    {
      "inputs": [],
      "name": "owner",
      "outputs": [
        {
          "internalType": "address",
          "name": "",
          "type": "address"
        }
      ],
      "stateMutability": "view",
      "type": "function"
    },
    {
      "inputs": [
        {
          "internalType": "uint256",
          "name": "tokenId",
          "type": "uint256"
        }
      ],
      "name": "ownerOf",
      "outputs": [
        {
          "internalType": "address",
          "name": "",
          "type": "address"
        }
      ],
      "stateMutability": "view",
      "type": "function"
    },
    {
      "inputs": [
        {
          "internalType": "uint256",
          "name": "_tokenId",
          "type": "uint256"
        }
      ],
      "name": "pawned",
      "outputs": [
        {
          "internalType": "bool",
          "name": "",
          "type": "bool"
        }
      ],
      "stateMutability": "nonpayable",
      "type": "function"
    },
    {
      "inputs": [],
      "name": "renounceOwnership",
      "outputs": [],
      "stateMutability": "nonpayable",
      "type": "function"
    },
    {
      "inputs": [
        {
          "internalType": "address",
          "name": "from",
          "type": "address"
        },
        {
          "internalType": "address",
          "name": "to",
          "type": "address"
        },
        {
          "internalType": "uint256",
          "name": "tokenId",
          "type": "uint256"
        }
      ],
      "name": "safeTransferFrom",
      "outputs": [],
      "stateMutability": "payable",
      "type": "function"
    },
    {
      "inputs": [
        {
          "internalType": "address",
          "name": "from",
          "type": "address"
        },
        {
          "internalType": "address",
          "name": "to",
          "type": "address"
        },
        {
          "internalType": "uint256",
          "name": "tokenId",
          "type": "uint256"
        },
        {
          "internalType": "bytes",
          "name": "_data",
          "type": "bytes"
        }
      ],
      "name": "safeTransferFrom",
      "outputs": [],
      "stateMutability": "payable",
      "type": "function"
    },
    {
      "inputs": [
        {
          "internalType": "address",
          "name": "operator",
          "type": "address"
        },
        {
          "internalType": "bool",
          "name": "approved",
          "type": "bool"
        }
      ],
      "name": "setApprovalForAll",
      "outputs": [],
      "stateMutability": "nonpayable",
      "type": "function"
    },
    {
      "inputs": [
        {
          "internalType": "uint256",
          "name": "_cost",
          "type": "uint256"
        }
      ],
      "name": "setCost",
      "outputs": [],
      "stateMutability": "nonpayable",
      "type": "function"
    },
    {
      "inputs": [
        {
          "internalType": "bytes32",
          "name": "_merkleRoot",
          "type": "bytes32"
        }
      ],
      "name": "setMerkleRoot",
      "outputs": [],
      "stateMutability": "nonpayable",
      "type": "function"
    },
    {
      "inputs": [
        {
          "internalType": "bool",
          "name": "_state",
          "type": "bool"
        }
      ],
      "name": "setWhitelistMintEnabled",
      "outputs": [],
      "stateMutability": "nonpayable",
      "type": "function"
    },
    {
      "inputs": [
        {
          "internalType": "uint256",
          "name": "_tokenId",
          "type": "uint256"
        }
      ],
      "name": "staking",
      "outputs": [],
      "stateMutability": "nonpayable",
      "type": "function"
    },
    {
      "inputs": [
        {
          "internalType": "bytes4",
          "name": "interfaceId",
          "type": "bytes4"
        }
      ],
      "name": "supportsInterface",
      "outputs": [
        {
          "internalType": "bool",
          "name": "",
          "type": "bool"
        }
      ],
      "stateMutability": "view",
      "type": "function"
    },
    {
      "inputs": [],
      "name": "symbol",
      "outputs": [
        {
          "internalType": "string",
          "name": "",
          "type": "string"
        }
      ],
      "stateMutability": "view",
      "type": "function"
    },
    {
      "inputs": [
        {
          "internalType": "uint256",
          "name": "",
          "type": "uint256"
        }
      ],
      "name": "timeStaking",
      "outputs": [
        {
          "internalType": "uint256",
          "name": "",
          "type": "uint256"
        }
      ],
      "stateMutability": "view",
      "type": "function"
    },
    {
      "inputs": [
        {
          "internalType": "uint256",
          "name": "_tokenId",
          "type": "uint256"
        }
      ],
      "name": "timeStakingOf",
      "outputs": [
        {
          "internalType": "uint256",
          "name": "",
          "type": "uint256"
        }
      ],
      "stateMutability": "view",
      "type": "function"
    },
    {
      "inputs": [
        {
          "internalType": "address",
          "name": "_owner",
          "type": "address"
        },
        {
          "internalType": "uint256",
          "name": "_index",
          "type": "uint256"
        }
      ],
      "name": "tokenOfOwnerByIndex",
      "outputs": [
        {
          "internalType": "uint256",
          "name": "",
          "type": "uint256"
        }
      ],
      "stateMutability": "view",
      "type": "function"
    },
    {
      "inputs": [
        {
          "internalType": "uint256",
          "name": "_tokenId",
          "type": "uint256"
        }
      ],
      "name": "tokenURI",
      "outputs": [
        {
          "internalType": "string",
          "name": "",
          "type": "string"
        }
      ],
      "stateMutability": "view",
      "type": "function"
    },
    {
      "inputs": [
        {
          "internalType": "address",
          "name": "_owner",
          "type": "address"
        }
      ],
      "name": "tokensOfOwner",
      "outputs": [
        {
          "internalType": "uint256[]",
          "name": "",
          "type": "uint256[]"
        }
      ],
      "stateMutability": "view",
      "type": "function"
    },
    {
      "inputs": [],
      "name": "totalSupply",
      "outputs": [
        {
          "internalType": "uint256",
          "name": "",
          "type": "uint256"
        }
      ],
      "stateMutability": "view",
      "type": "function"
    },
    {
      "inputs": [
        {
          "internalType": "address",
          "name": "from",
          "type": "address"
        },
        {
          "internalType": "address",
          "name": "to",
          "type": "address"
        },
        {
          "internalType": "uint256",
          "name": "tokenId",
          "type": "uint256"
        }
      ],
      "name": "transferFrom",
      "outputs": [],
      "stateMutability": "payable",
      "type": "function"
    },
    {
      "inputs": [
        {
          "internalType": "address",
          "name": "newOwner",
          "type": "address"
        }
      ],
      "name": "transferOwnership",
      "outputs": [],
      "stateMutability": "nonpayable",
      "type": "function"
    },
    {
      "inputs": [
        {
          "internalType": "uint256",
          "name": "_tokenId",
          "type": "uint256"
        }
      ],
      "name": "unstaking",
      "outputs": [],
      "stateMutability": "nonpayable",
      "type": "function"
    },
    {
      "inputs": [
        {
          "internalType": "address",
          "name": "_owner",
          "type": "address"
        }
      ],
      "name": "walletOfOwner",
      "outputs": [
        {
          "internalType": "uint256[]",
          "name": "",
          "type": "uint256[]"
        }
      ],
      "stateMutability": "view",
      "type": "function"
    },
    {
      "inputs": [
        {
          "internalType": "address",
          "name": "",
          "type": "address"
        }
      ],
      "name": "whitelistClaimed",
      "outputs": [
        {
          "internalType": "bool",
          "name": "",
          "type": "bool"
        }
      ],
      "stateMutability": "view",
      "type": "function"
    },
    {
      "inputs": [],
      "name": "whitelistMintEnabled",
      "outputs": [
        {
          "internalType": "bool",
          "name": "",
          "type": "bool"
        }
      ],
      "stateMutability": "view",
      "type": "function"
    },
    {
      "inputs": [],
      "name": "withdraw",
      "outputs": [],
      "stateMutability": "nonpayable",
      "type": "function"
    }
  ],
  "bytecode": "0x60806040526000601160006101000a81548160ff0219169083151502179055503480156200002c57600080fd5b506040518060400160405280600781526020017f41495244524f50000000000000000000000000000000000000000000000000008152506040518060400160405280600381526020017f41445000000000000000000000000000000000000000000000000000000000008152508160029081620000aa91906200046a565b508060039081620000bc91906200046a565b50620000cd6200011960201b60201c565b6000819055505050620000f5620000e96200012260201b60201c565b6200012a60201b60201c565b6001600981905550660221b262dd8000600f81905550603260108190555062000551565b60006001905090565b600033905090565b6000600860009054906101000a900473ffffffffffffffffffffffffffffffffffffffff16905081600860006101000a81548173ffffffffffffffffffffffffffffffffffffffff021916908373ffffffffffffffffffffffffffffffffffffffff1602179055508173ffffffffffffffffffffffffffffffffffffffff168173ffffffffffffffffffffffffffffffffffffffff167f8be0079c531659141344cd1fd0a4f28419497f9722a3daafe3b4186f6b6457e060405160405180910390a35050565b600081519050919050565b7f4e487b7100000000000000000000000000000000000000000000000000000000600052604160045260246000fd5b7f4e487b7100000000000000000000000000000000000000000000000000000000600052602260045260246000fd5b600060028204905060018216806200027257607f821691505b6020821081036200028857620002876200022a565b5b50919050565b60008190508160005260206000209050919050565b60006020601f8301049050919050565b600082821b905092915050565b600060088302620002f27fffffffffffffffffffffffffffffffffffffffffffffffffffffffffffffffff82620002b3565b620002fe8683620002b3565b95508019841693508086168417925050509392505050565b6000819050919050565b6000819050919050565b60006200034b620003456200033f8462000316565b62000320565b62000316565b9050919050565b6000819050919050565b62000367836200032a565b6200037f620003768262000352565b848454620002c0565b825550505050565b600090565b6200039662000387565b620003a38184846200035c565b505050565b5b81811015620003cb57620003bf6000826200038c565b600181019050620003a9565b5050565b601f8211156200041a57620003e4816200028e565b620003ef84620002a3565b81016020851015620003ff578190505b620004176200040e85620002a3565b830182620003a8565b50505b505050565b600082821c905092915050565b60006200043f600019846008026200041f565b1980831691505092915050565b60006200045a83836200042c565b9150826002028217905092915050565b6200047582620001f0565b67ffffffffffffffff811115620004915762000490620001fb565b5b6200049d825462000259565b620004aa828285620003cf565b600060209050601f831160018114620004e25760008415620004cd578287015190505b620004d985826200044c565b86555062000549565b601f198416620004f2866200028e565b60005b828110156200051c57848901518255600182019150602085019450602081019050620004f5565b868310156200053c578489015162000538601f8916826200042c565b8355505b6001600288020188555050505b505050505050565b613b0980620005616000396000f3fe6080604052600436106102305760003560e01c80637cb647591161012e578063c87b56dd116100ab578063e2965f1f1161006f578063e2965f1f1461084f578063e985e9c51461088c578063ee467634146108c9578063efbd73f4146108f2578063f2fde38b1461091b57610230565b8063c87b56dd14610744578063c884ef8314610781578063cb712535146107be578063d5abeb01146107e7578063db4bec441461081257610230565b806395d89b41116100f257806395d89b411461066e578063964259f514610699578063a22cb465146106d6578063b767a098146106ff578063b88d4fde1461072857610230565b80637cb64759146105775780638462151c146105a057806386f50df5146105dd5780638da5cb5b1461061a57806390827da71461064557610230565b80632eb4a7ab116101bc57806344a0d68a1161018057806344a0d68a146104925780636352211e146104bb5780636caede3d146104f857806370a0823114610523578063715018a61461056057610230565b80632eb4a7ab146103ba5780632f745c59146103e55780633ccfd60b1461042257806342842e0e14610439578063438b63001461045557610230565b806313faede61161020357806313faede6146102f657806318160ddd146103215780631dbb2a221461034c57806320281a981461037557806323b872dd1461039e57610230565b806301ffc9a71461023557806306fdde0314610272578063081812fc1461029d578063095ea7b3146102da575b600080fd5b34801561024157600080fd5b5061025c6004803603810190610257919061297c565b610944565b60405161026991906129c4565b60405180910390f35b34801561027e57600080fd5b506102876109d6565b6040516102949190612a6f565b60405180910390f35b3480156102a957600080fd5b506102c460048036038101906102bf9190612ac7565b610a68565b6040516102d19190612b35565b60405180910390f35b6102f460048036038101906102ef9190612b7c565b610ae7565b005b34801561030257600080fd5b5061030b610c2b565b6040516103189190612bcb565b60405180910390f35b34801561032d57600080fd5b50610336610c31565b6040516103439190612bcb565b60405180910390f35b34801561035857600080fd5b50610373600480360381019061036e9190612ac7565b610c48565b005b34801561038157600080fd5b5061039c60048036038101906103979190612ac7565b610cc5565b005b6103b860048036038101906103b39190612be6565b610e23565b005b3480156103c657600080fd5b506103cf611145565b6040516103dc9190612c52565b60405180910390f35b3480156103f157600080fd5b5061040c60048036038101906104079190612b7c565b61114b565b6040516104199190612bcb565b60405180910390f35b34801561042e57600080fd5b506104376111c5565b005b610453600480360381019061044e9190612be6565b6112a2565b005b34801561046157600080fd5b5061047c60048036038101906104779190612c6d565b6112c2565b6040516104899190612d58565b60405180910390f35b34801561049e57600080fd5b506104b960048036038101906104b49190612ac7565b6113c3565b005b3480156104c757600080fd5b506104e260048036038101906104dd9190612ac7565b6113d5565b6040516104ef9190612b35565b60405180910390f35b34801561050457600080fd5b5061050d6113e7565b60405161051a91906129c4565b60405180910390f35b34801561052f57600080fd5b5061054a60048036038101906105459190612c6d565b6113fa565b6040516105579190612bcb565b60405180910390f35b34801561056c57600080fd5b506105756114b2565b005b34801561058357600080fd5b5061059e60048036038101906105999190612da6565b6114c6565b005b3480156105ac57600080fd5b506105c760048036038101906105c29190612c6d565b6114d8565b6040516105d49190612d58565b60405180910390f35b3480156105e957600080fd5b5061060460048036038101906105ff9190612ac7565b611586565b6040516106119190612bcb565b60405180910390f35b34801561062657600080fd5b5061062f61163b565b60405161063c9190612b35565b60405180910390f35b34801561065157600080fd5b5061066c60048036038101906106679190612ac7565b611665565b005b34801561067a57600080fd5b5061068361173b565b6040516106909190612a6f565b60405180910390f35b3480156106a557600080fd5b506106c060048036038101906106bb9190612ac7565b6117cd565b6040516106cd91906129c4565b60405180910390f35b3480156106e257600080fd5b506106fd60048036038101906106f89190612dff565b611931565b005b34801561070b57600080fd5b5061072660048036038101906107219190612e3f565b611a3c565b005b610742600480360381019061073d9190612fa1565b611a61565b005b34801561075057600080fd5b5061076b60048036038101906107669190612ac7565b611ad4565b6040516107789190612a6f565b60405180910390f35b34801561078d57600080fd5b506107a860048036038101906107a39190612c6d565b611b8c565b6040516107b591906129c4565b60405180910390f35b3480156107ca57600080fd5b506107e560048036038101906107e09190612be6565b611bac565b005b3480156107f357600080fd5b506107fc611ca6565b6040516108099190612bcb565b60405180910390f35b34801561081e57600080fd5b5061083960048036038101906108349190612c6d565b611cac565b60405161084691906129c4565b60405180910390f35b34801561085b57600080fd5b5061087660048036038101906108719190612ac7565b611ccc565b6040516108839190612bcb565b60405180910390f35b34801561089857600080fd5b506108b360048036038101906108ae9190613024565b611ce4565b6040516108c091906129c4565b60405180910390f35b3480156108d557600080fd5b506108f060048036038101906108eb9190612ac7565b611d78565b005b3480156108fe57600080fd5b5061091960048036038101906109149190613064565b611e26565b005b34801561092757600080fd5b50610942600480360381019061093d9190612c6d565b611ed6565b005b60006301ffc9a760e01b827bffffffffffffffffffffffffffffffffffffffffffffffffffffffff1916148061099f57506380ac58cd60e01b827bffffffffffffffffffffffffffffffffffffffffffffffffffffffff1916145b806109cf5750635b5e139f60e01b827bffffffffffffffffffffffffffffffffffffffffffffffffffffffff1916145b9050919050565b6060600280546109e5906130d3565b80601f0160208091040260200160405190810160405280929190818152602001828054610a11906130d3565b8015610a5e5780601f10610a3357610100808354040283529160200191610a5e565b820191906000526020600020905b815481529060010190602001808311610a4157829003601f168201915b5050505050905090565b6000610a7382611f59565b610aa9576040517fcf4700e400000000000000000000000000000000000000000000000000000000815260040160405180910390fd5b6006600083815260200190815260200160002060000160009054906101000a900473ffffffffffffffffffffffffffffffffffffffff169050919050565b6000610af2826113d5565b90508073ffffffffffffffffffffffffffffffffffffffff16610b13611fb8565b73ffffffffffffffffffffffffffffffffffffffff1614610b7657610b3f81610b3a611fb8565b611ce4565b610b75576040517fcfb3b94200000000000000000000000000000000000000000000000000000000815260040160405180910390fd5b5b826006600084815260200190815260200160002060000160006101000a81548173ffffffffffffffffffffffffffffffffffffffff021916908373ffffffffffffffffffffffffffffffffffffffff160217905550818373ffffffffffffffffffffffffffffffffffffffff168273ffffffffffffffffffffffffffffffffffffffff167f8c5be1e5ebec7d5bd14f71427d1e84f3dd0314c0f7b2291e5b200ac8c7c3b92560405160405180910390a4505050565b600f5481565b6000610c3b611fc0565b6001546000540303905090565b610c59610c53611fc9565b82611fd1565b610c98576040517f08c379a0000000000000000000000000000000000000000000000000000000008152600401610c8f90613176565b60405180910390fd5b610caa610ca361163b565b6000611931565b42600d60008381526020019081526020016000208190555050565b610cd6610cd0611fc9565b82611fd1565b610d15576040517f08c379a0000000000000000000000000000000000000000000000000000000008152600401610d0c90613176565b60405180910390fd5b60001515600e6000610d25611fc9565b73ffffffffffffffffffffffffffffffffffffffff1673ffffffffffffffffffffffffffffffffffffffff16815260200190815260200160002060009054906101000a900460ff16151514610daf576040517f08c379a0000000000000000000000000000000000000000000000000000000008152600401610da690613208565b60405180910390fd5b610dc1610dba611fc9565b6000611931565b6001600e6000610dcf611fc9565b73ffffffffffffffffffffffffffffffffffffffff1673ffffffffffffffffffffffffffffffffffffffff16815260200190815260200160002060006101000a81548160ff02191690831515021790555050565b6000610e2e826120af565b90508373ffffffffffffffffffffffffffffffffffffffff168173ffffffffffffffffffffffffffffffffffffffff1614610e95576040517fa114810000000000000000000000000000000000000000000000000000000000815260040160405180910390fd5b600080610ea18461217b565b91509150610eb78187610eb2611fb8565b6121a2565b610f0357610ecc86610ec7611fb8565b611ce4565b610f02576040517f59c896be00000000000000000000000000000000000000000000000000000000815260040160405180910390fd5b5b600073ffffffffffffffffffffffffffffffffffffffff168573ffffffffffffffffffffffffffffffffffffffff1603610f69576040517fea553b3400000000000000000000000000000000000000000000000000000000815260040160405180910390fd5b610f7686868660016121e6565b8015610f8157600082555b600560008773ffffffffffffffffffffffffffffffffffffffff1673ffffffffffffffffffffffffffffffffffffffff168152602001908152602001600020600081546001900391905081905550600560008673ffffffffffffffffffffffffffffffffffffffff1673ffffffffffffffffffffffffffffffffffffffff168152602001908152602001600020600081546001019190508190555061104f8561102b8888876121ec565b7c020000000000000000000000000000000000000000000000000000000017612214565b600460008681526020019081526020016000208190555060007c02000000000000000000000000000000000000000000000000000000008416036110d557600060018501905060006004600083815260200190815260200160002054036110d35760005481146110d2578360046000838152602001908152602001600020819055505b5b505b838573ffffffffffffffffffffffffffffffffffffffff168773ffffffffffffffffffffffffffffffffffffffff167fddf252ad1be2c89b69c2b068fc378daa952ba7f163c4a11628f55a4df523b3ef60405160405180910390a461113d868686600161223f565b505050505050565b600a5481565b6000611156836113fa565b8210611197576040517f08c379a000000000000000000000000000000000000000000000000000000000815260040161118e9061329a565b60405180910390fd5b6111a083612245565b82815481106111b2576111b16132ba565b5b9060005260206000200154905092915050565b6111cd61228d565b600260095403611212576040517f08c379a000000000000000000000000000000000000000000000000000000000815260040161120990613335565b60405180910390fd5b6002600981905550600061122461163b565b73ffffffffffffffffffffffffffffffffffffffff164760405161124790613386565b60006040518083038185875af1925050503d8060008114611284576040519150601f19603f3d011682016040523d82523d6000602084013e611289565b606091505b505090508061129757600080fd5b506001600981905550565b6112bd83838360405180602001604052806000815250611a61565b505050565b606060006112cf836113fa565b905060008167ffffffffffffffff8111156112ed576112ec612e76565b5b60405190808252806020026020018201604052801561131b5781602001602082028036833780820191505090505b5090506000611328611fc0565b90506000805b848210156113b65761133f836113d5565b90508673ffffffffffffffffffffffffffffffffffffffff168173ffffffffffffffffffffffffffffffffffffffff16036113a35782848381518110611388576113876132ba565b5b602002602001018181525050818061139f906133ca565b9250505b82806113ae906133ca565b93505061132e565b8395505050505050919050565b6113cb61228d565b80600f8190555050565b60006113e0826120af565b9050919050565b601160009054906101000a900460ff1681565b60008073ffffffffffffffffffffffffffffffffffffffff168273ffffffffffffffffffffffffffffffffffffffff1603611461576040517f8f4eb60400000000000000000000000000000000000000000000000000000000815260040160405180910390fd5b67ffffffffffffffff600560008473ffffffffffffffffffffffffffffffffffffffff1673ffffffffffffffffffffffffffffffffffffffff16815260200190815260200160002054169050919050565b6114ba61228d565b6114c4600061230b565b565b6114ce61228d565b80600a8190555050565b606060006114e5836113fa565b905060008167ffffffffffffffff81111561150357611502612e76565b5b6040519080825280602002602001820160405280156115315781602001602082028036833780820191505090505b50905060005b8281101561157b57611549858261114b565b82828151811061155c5761155b6132ba565b5b6020026020010181815250508080611573906133ca565b915050611537565b508092505050919050565b600061159182611f59565b6115d0576040517f08c379a00000000000000000000000000000000000000000000000000000000081526004016115c790613484565b60405180910390fd5b6115e16115db611fc9565b83611fd1565b611620576040517f08c379a000000000000000000000000000000000000000000000000000000000815260040161161790613176565b60405180910390fd5b600d6000838152602001908152602001600020549050919050565b6000600860009054906101000a900473ffffffffffffffffffffffffffffffffffffffff16905090565b611676611670611fc9565b82611fd1565b6116b5576040517f08c379a00000000000000000000000000000000000000000000000000000000081526004016116ac90613176565b60405180910390fd5b62278d00600d6000838152602001908152602001600020541161170d576040517f08c379a0000000000000000000000000000000000000000000000000000000008152600401611704906134f0565b60405180910390fd5b61171f611718611fc9565b6001611931565b6000600d60008381526020019081526020016000208190555050565b60606003805461174a906130d3565b80601f0160208091040260200160405190810160405280929190818152602001828054611776906130d3565b80156117c35780601f10611798576101008083540402835291602001916117c3565b820191906000526020600020905b8154815290600101906020018083116117a657829003601f168201915b5050505050905090565b60006117d882611f59565b611817576040517f08c379a000000000000000000000000000000000000000000000000000000000815260040161180e90613582565b60405180910390fd5b611828611822611fc9565b83611fd1565b611867576040517f08c379a000000000000000000000000000000000000000000000000000000000815260040161185e90613176565b60405180910390fd5b60001515600e6000611877611fc9565b73ffffffffffffffffffffffffffffffffffffffff1673ffffffffffffffffffffffffffffffffffffffff16815260200190815260200160002060009054906101000a900460ff16151514611901576040517f08c379a00000000000000000000000000000000000000000000000000000000081526004016118f890613208565b60405180910390fd5b61191361190c611fc9565b3084610e23565b6000600d600084815260200190815260200160002054119050919050565b806007600061193e611fb8565b73ffffffffffffffffffffffffffffffffffffffff1673ffffffffffffffffffffffffffffffffffffffff16815260200190815260200160002060008473ffffffffffffffffffffffffffffffffffffffff1673ffffffffffffffffffffffffffffffffffffffff16815260200190815260200160002060006101000a81548160ff0219169083151502179055508173ffffffffffffffffffffffffffffffffffffffff166119eb611fb8565b73ffffffffffffffffffffffffffffffffffffffff167f17307eab39ab6107e8899845ad3d59bd9653f200f220920489ca2b5937696c3183604051611a3091906129c4565b60405180910390a35050565b611a4461228d565b80601160006101000a81548160ff02191690831515021790555050565b611a6c848484610e23565b60008373ffffffffffffffffffffffffffffffffffffffff163b14611ace57611a97848484846123d1565b611acd576040517fd1a57ed600000000000000000000000000000000000000000000000000000000815260040160405180910390fd5b5b50505050565b6060611adf82611f59565b611b1e576040517f08c379a0000000000000000000000000000000000000000000000000000000008152600401611b1590613484565b60405180910390fd5b6000604051806060016040528060368152602001613a9e6036913990506000815111611b595760405180602001604052806000815250611b84565b80611b6384612521565b604051602001611b7492919061362a565b6040516020818303038152906040525b915050919050565b600e6020528060005260406000206000915054906101000a900460ff1681565b611bbd611bb7611fc9565b82611fd1565b611bfc576040517f08c379a0000000000000000000000000000000000000000000000000000000008152600401611bf390613176565b60405180910390fd5b60001515600e6000611c0c611fc9565b73ffffffffffffffffffffffffffffffffffffffff1673ffffffffffffffffffffffffffffffffffffffff16815260200190815260200160002060009054906101000a900460ff16151514611c96576040517f08c379a0000000000000000000000000000000000000000000000000000000008152600401611c8d906136cb565b60405180910390fd5b611ca1838383610e23565b505050565b60105481565b600c6020528060005260406000206000915054906101000a900460ff1681565b600d6020528060005260406000206000915090505481565b6000600760008473ffffffffffffffffffffffffffffffffffffffff1673ffffffffffffffffffffffffffffffffffffffff16815260200190815260200160002060008373ffffffffffffffffffffffffffffffffffffffff1673ffffffffffffffffffffffffffffffffffffffff16815260200190815260200160002060009054906101000a900460ff16905092915050565b60008111611dbb576040517f08c379a0000000000000000000000000000000000000000000000000000000008152600401611db290613737565b60405180910390fd5b60105481611dc7610c31565b611dd19190613757565b1115611e12576040517f08c379a0000000000000000000000000000000000000000000000000000000008152600401611e09906137d7565b60405180910390fd5b611e23611e1d611fc9565b82612681565b50565b611e2e61228d565b60008211611e71576040517f08c379a0000000000000000000000000000000000000000000000000000000008152600401611e6890613737565b60405180910390fd5b60105482611e7d610c31565b611e879190613757565b1115611ec8576040517f08c379a0000000000000000000000000000000000000000000000000000000008152600401611ebf906137d7565b60405180910390fd5b611ed28183612681565b5050565b611ede61228d565b600073ffffffffffffffffffffffffffffffffffffffff168173ffffffffffffffffffffffffffffffffffffffff1603611f4d576040517f08c379a0000000000000000000000000000000000000000000000000000000008152600401611f4490613869565b60405180910390fd5b611f568161230b565b50565b600081611f64611fc0565b11158015611f73575060005482105b8015611fb1575060007c0100000000000000000000000000000000000000000000000000000000600460008581526020019081526020016000205416145b9050919050565b600033905090565b60006001905090565b600033905090565b6000611fdc82611f59565b61201b576040517f08c379a000000000000000000000000000000000000000000000000000000000815260040161201290613582565b60405180910390fd5b6000612026836113d5565b90508073ffffffffffffffffffffffffffffffffffffffff168473ffffffffffffffffffffffffffffffffffffffff16148061209557508373ffffffffffffffffffffffffffffffffffffffff1661207d84610a68565b73ffffffffffffffffffffffffffffffffffffffff16145b806120a657506120a58185611ce4565b5b91505092915050565b600080829050806120be611fc0565b11612144576000548110156121435760006004600083815260200190815260200160002054905060007c0100000000000000000000000000000000000000000000000000000000821603612141575b6000810361213757600460008360019003935083815260200190815260200160002054905061210d565b8092505050612176565b505b5b6040517fdf2d9b4200000000000000000000000000000000000000000000000000000000815260040160405180910390fd5b919050565b60008060006006600085815260200190815260200160002090508092508254915050915091565b600073ffffffffffffffffffffffffffffffffffffffff8316925073ffffffffffffffffffffffffffffffffffffffff821691508382148383141790509392505050565b50505050565b60008060e883901c905060e861220386868461269f565b62ffffff16901b9150509392505050565b600073ffffffffffffffffffffffffffffffffffffffff83169250814260a01b178317905092915050565b50505050565b6000600b60008373ffffffffffffffffffffffffffffffffffffffff1673ffffffffffffffffffffffffffffffffffffffff1681526020019081526020016000209050919050565b612295611fc9565b73ffffffffffffffffffffffffffffffffffffffff166122b361163b565b73ffffffffffffffffffffffffffffffffffffffff1614612309576040517f08c379a0000000000000000000000000000000000000000000000000000000008152600401612300906138d5565b60405180910390fd5b565b6000600860009054906101000a900473ffffffffffffffffffffffffffffffffffffffff16905081600860006101000a81548173ffffffffffffffffffffffffffffffffffffffff021916908373ffffffffffffffffffffffffffffffffffffffff1602179055508173ffffffffffffffffffffffffffffffffffffffff168173ffffffffffffffffffffffffffffffffffffffff167f8be0079c531659141344cd1fd0a4f28419497f9722a3daafe3b4186f6b6457e060405160405180910390a35050565b60008373ffffffffffffffffffffffffffffffffffffffff1663150b7a026123f7611fb8565b8786866040518563ffffffff1660e01b8152600401612419949392919061394a565b6020604051808303816000875af192505050801561245557506040513d601f19601f8201168201806040525081019061245291906139ab565b60015b6124ce573d8060008114612485576040519150601f19603f3d011682016040523d82523d6000602084013e61248a565b606091505b5060008151036124c6576040517fd1a57ed600000000000000000000000000000000000000000000000000000000815260040160405180910390fd5b805181602001fd5b63150b7a0260e01b7bffffffffffffffffffffffffffffffffffffffffffffffffffffffff1916817bffffffffffffffffffffffffffffffffffffffffffffffffffffffff191614915050949350505050565b606060008203612568576040518060400160405280600181526020017f3000000000000000000000000000000000000000000000000000000000000000815250905061267c565b600082905060005b6000821461259a578080612583906133ca565b915050600a826125939190613a07565b9150612570565b60008167ffffffffffffffff8111156125b6576125b5612e76565b5b6040519080825280601f01601f1916602001820160405280156125e85781602001600182028036833780820191505090505b5090505b60008514612675576001826126019190613a38565b9150600a856126109190613a6c565b603061261c9190613757565b60f81b818381518110612632576126316132ba565b5b60200101907effffffffffffffffffffffffffffffffffffffffffffffffffffffffffffff1916908160001a905350600a8561266e9190613a07565b94506125ec565b8093505050505b919050565b61269b8282604051806020016040528060008152506126a8565b5050565b60009392505050565b6126b28383612745565b60008373ffffffffffffffffffffffffffffffffffffffff163b1461274057600080549050600083820390505b6126f260008683806001019450866123d1565b612728576040517fd1a57ed600000000000000000000000000000000000000000000000000000000815260040160405180910390fd5b8181106126df57816000541461273d57600080fd5b50505b505050565b60008054905060008203612785576040517fb562e8dd00000000000000000000000000000000000000000000000000000000815260040160405180910390fd5b61279260008483856121e6565b600160406001901b178202600560008573ffffffffffffffffffffffffffffffffffffffff1673ffffffffffffffffffffffffffffffffffffffff16815260200190815260200160002060008282540192505081905550612809836127fa60008660006121ec565b61280385612900565b17612214565b6004600083815260200190815260200160002081905550600080838301905073ffffffffffffffffffffffffffffffffffffffff85169150828260007fddf252ad1be2c89b69c2b068fc378daa952ba7f163c4a11628f55a4df523b3ef600080a4600183015b8181146128aa57808360007fddf252ad1be2c89b69c2b068fc378daa952ba7f163c4a11628f55a4df523b3ef600080a460018101905061286f565b50600082036128e5576040517f2e07630000000000000000000000000000000000000000000000000000000000815260040160405180910390fd5b8060008190555050506128fb600084838561223f565b505050565b60006001821460e11b9050919050565b6000604051905090565b600080fd5b600080fd5b60007fffffffff0000000000000000000000000000000000000000000000000000000082169050919050565b61295981612924565b811461296457600080fd5b50565b60008135905061297681612950565b92915050565b6000602082840312156129925761299161291a565b5b60006129a084828501612967565b91505092915050565b60008115159050919050565b6129be816129a9565b82525050565b60006020820190506129d960008301846129b5565b92915050565b600081519050919050565b600082825260208201905092915050565b60005b83811015612a195780820151818401526020810190506129fe565b60008484015250505050565b6000601f19601f8301169050919050565b6000612a41826129df565b612a4b81856129ea565b9350612a5b8185602086016129fb565b612a6481612a25565b840191505092915050565b60006020820190508181036000830152612a898184612a36565b905092915050565b6000819050919050565b612aa481612a91565b8114612aaf57600080fd5b50565b600081359050612ac181612a9b565b92915050565b600060208284031215612add57612adc61291a565b5b6000612aeb84828501612ab2565b91505092915050565b600073ffffffffffffffffffffffffffffffffffffffff82169050919050565b6000612b1f82612af4565b9050919050565b612b2f81612b14565b82525050565b6000602082019050612b4a6000830184612b26565b92915050565b612b5981612b14565b8114612b6457600080fd5b50565b600081359050612b7681612b50565b92915050565b60008060408385031215612b9357612b9261291a565b5b6000612ba185828601612b67565b9250506020612bb285828601612ab2565b9150509250929050565b612bc581612a91565b82525050565b6000602082019050612be06000830184612bbc565b92915050565b600080600060608486031215612bff57612bfe61291a565b5b6000612c0d86828701612b67565b9350506020612c1e86828701612b67565b9250506040612c2f86828701612ab2565b9150509250925092565b6000819050919050565b612c4c81612c39565b82525050565b6000602082019050612c676000830184612c43565b92915050565b600060208284031215612c8357612c8261291a565b5b6000612c9184828501612b67565b91505092915050565b600081519050919050565b600082825260208201905092915050565b6000819050602082019050919050565b612ccf81612a91565b82525050565b6000612ce18383612cc6565b60208301905092915050565b6000602082019050919050565b6000612d0582612c9a565b612d0f8185612ca5565b9350612d1a83612cb6565b8060005b83811015612d4b578151612d328882612cd5565b9750612d3d83612ced565b925050600181019050612d1e565b5085935050505092915050565b60006020820190508181036000830152612d728184612cfa565b905092915050565b612d8381612c39565b8114612d8e57600080fd5b50565b600081359050612da081612d7a565b92915050565b600060208284031215612dbc57612dbb61291a565b5b6000612dca84828501612d91565b91505092915050565b612ddc816129a9565b8114612de757600080fd5b50565b600081359050612df981612dd3565b92915050565b60008060408385031215612e1657612e1561291a565b5b6000612e2485828601612b67565b9250506020612e3585828601612dea565b9150509250929050565b600060208284031215612e5557612e5461291a565b5b6000612e6384828501612dea565b91505092915050565b600080fd5b600080fd5b7f4e487b7100000000000000000000000000000000000000000000000000000000600052604160045260246000fd5b612eae82612a25565b810181811067ffffffffffffffff82111715612ecd57612ecc612e76565b5b80604052505050565b6000612ee0612910565b9050612eec8282612ea5565b919050565b600067ffffffffffffffff821115612f0c57612f0b612e76565b5b612f1582612a25565b9050602081019050919050565b82818337600083830152505050565b6000612f44612f3f84612ef1565b612ed6565b905082815260208101848484011115612f6057612f5f612e71565b5b612f6b848285612f22565b509392505050565b600082601f830112612f8857612f87612e6c565b5b8135612f98848260208601612f31565b91505092915050565b60008060008060808587031215612fbb57612fba61291a565b5b6000612fc987828801612b67565b9450506020612fda87828801612b67565b9350506040612feb87828801612ab2565b925050606085013567ffffffffffffffff81111561300c5761300b61291f565b5b61301887828801612f73565b91505092959194509250565b6000806040838503121561303b5761303a61291a565b5b600061304985828601612b67565b925050602061305a85828601612b67565b9150509250929050565b6000806040838503121561307b5761307a61291a565b5b600061308985828601612ab2565b925050602061309a85828601612b67565b9150509250929050565b7f4e487b7100000000000000000000000000000000000000000000000000000000600052602260045260246000fd5b600060028204905060018216806130eb57607f821691505b6020821081036130fe576130fd6130a4565b5b50919050565b7f4552433732314275726e61626c653a2063616c6c6572206973206e6f74206f7760008201527f6e6572206e6f7220617070726f76656400000000000000000000000000000000602082015250565b60006131606030836129ea565b915061316b82613104565b604082019050919050565b6000602082019050818103600083015261318f81613153565b9050919050565b7f596f75206861766520616c726561647920636c61696d656420796f757220726560008201527f7761726421000000000000000000000000000000000000000000000000000000602082015250565b60006131f26025836129ea565b91506131fd82613196565b604082019050919050565b60006020820190508181036000830152613221816131e5565b9050919050565b7f455243373231456e756d657261626c653a206f776e657220696e646578206f7560008201527f74206f6620626f756e6473000000000000000000000000000000000000000000602082015250565b6000613284602b836129ea565b915061328f82613228565b604082019050919050565b600060208201905081810360008301526132b381613277565b9050919050565b7f4e487b7100000000000000000000000000000000000000000000000000000000600052603260045260246000fd5b7f5265656e7472616e637947756172643a207265656e7472616e742063616c6c00600082015250565b600061331f601f836129ea565b915061332a826132e9565b602082019050919050565b6000602082019050818103600083015261334e81613312565b9050919050565b600081905092915050565b50565b6000613370600083613355565b915061337b82613360565b600082019050919050565b600061339182613363565b9150819050919050565b7f4e487b7100000000000000000000000000000000000000000000000000000000600052601160045260246000fd5b60006133d582612a91565b91507fffffffffffffffffffffffffffffffffffffffffffffffffffffffffffffffff82036134075761340661339b565b5b600182019050919050565b7f4552433732314d657461646174613a2055524920717565727920666f72206e6f60008201527f6e6578697374656e7420746f6b656e0000000000000000000000000000000000602082015250565b600061346e602f836129ea565b915061347982613412565b604082019050919050565b6000602082019050818103600083015261349d81613461565b9050919050565b7f596f752063616e206e6f7420756e7374616b696e672079657400000000000000600082015250565b60006134da6019836129ea565b91506134e5826134a4565b602082019050919050565b60006020820190508181036000830152613509816134cd565b9050919050565b7f4552433732313a206f70657261746f7220717565727920666f72206e6f6e657860008201527f697374656e7420746f6b656e0000000000000000000000000000000000000000602082015250565b600061356c602c836129ea565b915061357782613510565b604082019050919050565b6000602082019050818103600083015261359b8161355f565b9050919050565b600081905092915050565b60006135b8826129df565b6135c281856135a2565b93506135d28185602086016129fb565b80840191505092915050565b7f2e6a736f6e000000000000000000000000000000000000000000000000000000600082015250565b60006136146005836135a2565b915061361f826135de565b600582019050919050565b600061363682856135ad565b915061364282846135ad565b915061364d82613607565b91508190509392505050565b7f596f7520646f6e742068617665207065726d697373696f6e20746f207472616e60008201527f73666572207468697320746f6b656e2100000000000000000000000000000000602082015250565b60006136b56030836129ea565b91506136c082613659565b604082019050919050565b600060208201905081810360008301526136e4816136a8565b9050919050565b7f496e76616c6964206d696e7420616d6f756e7421000000000000000000000000600082015250565b60006137216014836129ea565b915061372c826136eb565b602082019050919050565b6000602082019050818103600083015261375081613714565b9050919050565b600061376282612a91565b915061376d83612a91565b92508282019050808211156137855761378461339b565b5b92915050565b7f4d617820737570706c7920657863656564656421000000000000000000000000600082015250565b60006137c16014836129ea565b91506137cc8261378b565b602082019050919050565b600060208201905081810360008301526137f0816137b4565b9050919050565b7f4f776e61626c653a206e6577206f776e657220697320746865207a65726f206160008201527f6464726573730000000000000000000000000000000000000000000000000000602082015250565b60006138536026836129ea565b915061385e826137f7565b604082019050919050565b6000602082019050818103600083015261388281613846565b9050919050565b7f4f776e61626c653a2063616c6c6572206973206e6f7420746865206f776e6572600082015250565b60006138bf6020836129ea565b91506138ca82613889565b602082019050919050565b600060208201905081810360008301526138ee816138b2565b9050919050565b600081519050919050565b600082825260208201905092915050565b600061391c826138f5565b6139268185613900565b93506139368185602086016129fb565b61393f81612a25565b840191505092915050565b600060808201905061395f6000830187612b26565b61396c6020830186612b26565b6139796040830185612bbc565b818103606083015261398b8184613911565b905095945050505050565b6000815190506139a581612950565b92915050565b6000602082840312156139c1576139c061291a565b5b60006139cf84828501613996565b91505092915050565b7f4e487b7100000000000000000000000000000000000000000000000000000000600052601260045260246000fd5b6000613a1282612a91565b9150613a1d83612a91565b925082613a2d57613a2c6139d8565b5b828204905092915050565b6000613a4382612a91565b9150613a4e83612a91565b9250828203905081811115613a6657613a6561339b565b5b92915050565b6000613a7782612a91565b9150613a8283612a91565b925082613a9257613a916139d8565b5b82820690509291505056fe697066733a2f2f516d58616a4d5a715074665343336856745853586a59444d646e43524c477934376b4e3552695a33784a654e537a2fa2646970667358221220a5719486c3dd7a65f53ade9041c8cdab086e30af868dae2f56a162e41f4dfeb664736f6c63430008110033",
  "linkReferences": {},
  "deployedLinkReferences": {}
}