{
  "_format": "hh-sol-artifact-1",
  "contractName": "CryptoBlueBerry",
  "sourceName": "contracts/CryptoBlueBerry.sol",
  "abi": [
    {
      "inputs": [],
      "stateMutability": "nonpayable",
      "type": "constructor"
    },
    {
      "inputs": [],
      "name": "ApprovalCallerNotOwnerNorApproved",
      "type": "error"
    },
    {
      "inputs": [],
      "name": "ApprovalQueryForNonexistentToken",
      "type": "error"
    },
    {
      "inputs": [],
      "name": "BalanceQueryForZeroAddress",
      "type": "error"
    },
    {
      "inputs": [],
      "name": "MintERC2309QuantityExceedsLimit",
      "type": "error"
    },
    {
      "inputs": [],
      "name": "MintToZeroAddress",
      "type": "error"
    },
    {
      "inputs": [],
      "name": "MintZeroQuantity",
      "type": "error"
    },
    {
      "inputs": [],
      "name": "OwnerQueryForNonexistentToken",
      "type": "error"
    },
    {
      "inputs": [],
      "name": "OwnershipNotInitializedForExtraData",
      "type": "error"
    },
    {
      "inputs": [],
      "name": "TransferCallerNotOwnerNorApproved",
      "type": "error"
    },
    {
      "inputs": [],
      "name": "TransferFromIncorrectOwner",
      "type": "error"
    },
    {
      "inputs": [],
      "name": "TransferToNonERC721ReceiverImplementer",
      "type": "error"
    },
    {
      "inputs": [],
      "name": "TransferToZeroAddress",
      "type": "error"
    },
    {
      "inputs": [],
      "name": "URIQueryForNonexistentToken",
      "type": "error"
    },
    {
      "anonymous": false,
      "inputs": [
        {
          "indexed": true,
          "internalType": "address",
          "name": "owner",
          "type": "address"
        },
        {
          "indexed": true,
          "internalType": "address",
          "name": "approved",
          "type": "address"
        },
        {
          "indexed": true,
          "internalType": "uint256",
          "name": "tokenId",
          "type": "uint256"
        }
      ],
      "name": "Approval",
      "type": "event"
    },
    {
      "anonymous": false,
      "inputs": [
        {
          "indexed": true,
          "internalType": "address",
          "name": "owner",
          "type": "address"
        },
        {
          "indexed": true,
          "internalType": "address",
          "name": "operator",
          "type": "address"
        },
        {
          "indexed": false,
          "internalType": "bool",
          "name": "approved",
          "type": "bool"
        }
      ],
      "name": "ApprovalForAll",
      "type": "event"
    },
    {
      "anonymous": false,
      "inputs": [
        {
          "indexed": true,
          "internalType": "uint256",
          "name": "fromTokenId",
          "type": "uint256"
        },
        {
          "indexed": false,
          "internalType": "uint256",
          "name": "toTokenId",
          "type": "uint256"
        },
        {
          "indexed": true,
          "internalType": "address",
          "name": "from",
          "type": "address"
        },
        {
          "indexed": true,
          "internalType": "address",
          "name": "to",
          "type": "address"
        }
      ],
      "name": "ConsecutiveTransfer",
      "type": "event"
    },
    {
      "anonymous": false,
      "inputs": [
        {
          "indexed": true,
          "internalType": "address",
          "name": "previousOwner",
          "type": "address"
        },
        {
          "indexed": true,
          "internalType": "address",
          "name": "newOwner",
          "type": "address"
        }
      ],
      "name": "OwnershipTransferred",
      "type": "event"
    },
    {
      "anonymous": false,
      "inputs": [
        {
          "indexed": true,
          "internalType": "address",
          "name": "from",
          "type": "address"
        },
        {
          "indexed": true,
          "internalType": "address",
          "name": "to",
          "type": "address"
        },
        {
          "indexed": true,
          "internalType": "uint256",
          "name": "tokenId",
          "type": "uint256"
        }
      ],
      "name": "Transfer",
      "type": "event"
    },
    {
      "inputs": [
        {
          "internalType": "address",
          "name": "to",
          "type": "address"
        },
        {
          "internalType": "uint256",
          "name": "tokenId",
          "type": "uint256"
        }
      ],
      "name": "approve",
      "outputs": [],
      "stateMutability": "payable",
      "type": "function"
    },
    {
      "inputs": [
        {
          "internalType": "address",
          "name": "owner",
          "type": "address"
        }
      ],
      "name": "balanceOf",
      "outputs": [
        {
          "internalType": "uint256",
          "name": "",
          "type": "uint256"
        }
      ],
      "stateMutability": "view",
      "type": "function"
    },
    {
      "inputs": [
        {
          "internalType": "uint256",
          "name": "_tokenId",
          "type": "uint256"
        }
      ],
      "name": "burn",
      "outputs": [],
      "stateMutability": "nonpayable",
      "type": "function"
    },
    {
      "inputs": [
        {
          "internalType": "address",
          "name": "",
          "type": "address"
        }
      ],
      "name": "claimed",
      "outputs": [
        {
          "internalType": "bool",
          "name": "",
          "type": "bool"
        }
      ],
      "stateMutability": "view",
      "type": "function"
    },
    {
      "inputs": [],
      "name": "cost",
      "outputs": [
        {
          "internalType": "uint256",
          "name": "",
          "type": "uint256"
        }
      ],
      "stateMutability": "view",
      "type": "function"
    },
    {
      "inputs": [
        {
          "internalType": "uint256",
          "name": "tokenId",
          "type": "uint256"
        }
      ],
      "name": "getApproved",
      "outputs": [
        {
          "internalType": "address",
          "name": "",
          "type": "address"
        }
      ],
      "stateMutability": "view",
      "type": "function"
    },
    {
      "inputs": [
        {
          "internalType": "address",
          "name": "owner",
          "type": "address"
        },
        {
          "internalType": "address",
          "name": "operator",
          "type": "address"
        }
      ],
      "name": "isApprovedForAll",
      "outputs": [
        {
          "internalType": "bool",
          "name": "",
          "type": "bool"
        }
      ],
      "stateMutability": "view",
      "type": "function"
    },
    {
      "inputs": [],
      "name": "maxSupply",
      "outputs": [
        {
          "internalType": "uint256",
          "name": "",
          "type": "uint256"
        }
      ],
      "stateMutability": "view",
      "type": "function"
    },
    {
      "inputs": [],
      "name": "merkleRoot",
      "outputs": [
        {
          "internalType": "bytes32",
          "name": "",
          "type": "bytes32"
        }
      ],
      "stateMutability": "view",
      "type": "function"
    },
    {
      "inputs": [
        {
          "internalType": "uint256",
          "name": "_mintAmount",
          "type": "uint256"
        }
      ],
      "name": "mint",
      "outputs": [],
      "stateMutability": "nonpayable",
      "type": "function"
    },
    {
      "inputs": [
        {
          "internalType": "uint256",
          "name": "_mintAmount",
          "type": "uint256"
        },
        {
          "internalType": "address",
          "name": "_receiver",
          "type": "address"
        }
      ],
      "name": "mintForAddress",
      "outputs": [],
      "stateMutability": "nonpayable",
      "type": "function"
    },
    {
      "inputs": [],
      "name": "name",
      "outputs": [
        {
          "internalType": "string",
          "name": "",
          "type": "string"
        }
      ],
      "stateMutability": "view",
      "type": "function"
    },
    {
      "inputs": [],
      "name": "owner",
      "outputs": [
        {
          "internalType": "address",
          "name": "",
          "type": "address"
        }
      ],
      "stateMutability": "view",
      "type": "function"
    },
    {
      "inputs": [
        {
          "internalType": "uint256",
          "name": "tokenId",
          "type": "uint256"
        }
      ],
      "name": "ownerOf",
      "outputs": [
        {
          "internalType": "address",
          "name": "",
          "type": "address"
        }
      ],
      "stateMutability": "view",
      "type": "function"
    },
    {
      "inputs": [],
      "name": "renounceOwnership",
      "outputs": [],
      "stateMutability": "nonpayable",
      "type": "function"
    },
    {
      "inputs": [],
      "name": "revealed",
      "outputs": [
        {
          "internalType": "bool",
          "name": "",
          "type": "bool"
        }
      ],
      "stateMutability": "view",
      "type": "function"
    },
    {
      "inputs": [
        {
          "internalType": "address",
          "name": "from",
          "type": "address"
        },
        {
          "internalType": "address",
          "name": "to",
          "type": "address"
        },
        {
          "internalType": "uint256",
          "name": "tokenId",
          "type": "uint256"
        }
      ],
      "name": "safeTransferFrom",
      "outputs": [],
      "stateMutability": "payable",
      "type": "function"
    },
    {
      "inputs": [
        {
          "internalType": "address",
          "name": "from",
          "type": "address"
        },
        {
          "internalType": "address",
          "name": "to",
          "type": "address"
        },
        {
          "internalType": "uint256",
          "name": "tokenId",
          "type": "uint256"
        },
        {
          "internalType": "bytes",
          "name": "_data",
          "type": "bytes"
        }
      ],
      "name": "safeTransferFrom",
      "outputs": [],
      "stateMutability": "payable",
      "type": "function"
    },
    {
      "inputs": [
        {
          "internalType": "address",
          "name": "operator",
          "type": "address"
        },
        {
          "internalType": "bool",
          "name": "approved",
          "type": "bool"
        }
      ],
      "name": "setApprovalForAll",
      "outputs": [],
      "stateMutability": "nonpayable",
      "type": "function"
    },
    {
      "inputs": [
        {
          "internalType": "uint256",
          "name": "_cost",
          "type": "uint256"
        }
      ],
      "name": "setCost",
      "outputs": [],
      "stateMutability": "nonpayable",
      "type": "function"
    },
    {
      "inputs": [
        {
          "internalType": "bytes32",
          "name": "_merkleRoot",
          "type": "bytes32"
        }
      ],
      "name": "setMerkleRoot",
      "outputs": [],
      "stateMutability": "nonpayable",
      "type": "function"
    },
    {
      "inputs": [
        {
          "internalType": "bool",
          "name": "_state",
          "type": "bool"
        }
      ],
      "name": "setRevealed",
      "outputs": [],
      "stateMutability": "nonpayable",
      "type": "function"
    },
    {
      "inputs": [
        {
          "internalType": "bool",
          "name": "_state",
          "type": "bool"
        }
      ],
      "name": "setWhitelistMintEnabled",
      "outputs": [],
      "stateMutability": "nonpayable",
      "type": "function"
    },
    {
      "inputs": [
        {
          "internalType": "uint256",
          "name": "_tokenId",
          "type": "uint256"
        }
      ],
      "name": "staking",
      "outputs": [],
      "stateMutability": "nonpayable",
      "type": "function"
    },
    {
      "inputs": [
        {
          "internalType": "bytes4",
          "name": "interfaceId",
          "type": "bytes4"
        }
      ],
      "name": "supportsInterface",
      "outputs": [
        {
          "internalType": "bool",
          "name": "",
          "type": "bool"
        }
      ],
      "stateMutability": "view",
      "type": "function"
    },
    {
      "inputs": [],
      "name": "symbol",
      "outputs": [
        {
          "internalType": "string",
          "name": "",
          "type": "string"
        }
      ],
      "stateMutability": "view",
      "type": "function"
    },
    {
      "inputs": [
        {
          "internalType": "uint256",
          "name": "",
          "type": "uint256"
        }
      ],
      "name": "timeStaking",
      "outputs": [
        {
          "internalType": "uint256",
          "name": "",
          "type": "uint256"
        }
      ],
      "stateMutability": "view",
      "type": "function"
    },
    {
      "inputs": [
        {
          "internalType": "uint256",
          "name": "_tokenId",
          "type": "uint256"
        }
      ],
      "name": "timeStakingOf",
      "outputs": [
        {
          "internalType": "uint256",
          "name": "",
          "type": "uint256"
        }
      ],
      "stateMutability": "view",
      "type": "function"
    },
    {
      "inputs": [
        {
          "internalType": "address",
          "name": "_owner",
          "type": "address"
        },
        {
          "internalType": "uint256",
          "name": "_index",
          "type": "uint256"
        }
      ],
      "name": "tokenOfOwnerByIndex",
      "outputs": [
        {
          "internalType": "uint256",
          "name": "",
          "type": "uint256"
        }
      ],
      "stateMutability": "view",
      "type": "function"
    },
    {
      "inputs": [
        {
          "internalType": "uint256",
          "name": "_tokenId",
          "type": "uint256"
        }
      ],
      "name": "tokenURI",
      "outputs": [
        {
          "internalType": "string",
          "name": "",
          "type": "string"
        }
      ],
      "stateMutability": "view",
      "type": "function"
    },
    {
      "inputs": [
        {
          "internalType": "address",
          "name": "_owner",
          "type": "address"
        }
      ],
      "name": "tokensOfOwner",
      "outputs": [
        {
          "internalType": "uint256[]",
          "name": "",
          "type": "uint256[]"
        }
      ],
      "stateMutability": "view",
      "type": "function"
    },
    {
      "inputs": [],
      "name": "totalSupply",
      "outputs": [
        {
          "internalType": "uint256",
          "name": "",
          "type": "uint256"
        }
      ],
      "stateMutability": "view",
      "type": "function"
    },
    {
      "inputs": [
        {
          "internalType": "address",
          "name": "from",
          "type": "address"
        },
        {
          "internalType": "address",
          "name": "to",
          "type": "address"
        },
        {
          "internalType": "uint256",
          "name": "tokenId",
          "type": "uint256"
        }
      ],
      "name": "transferFrom",
      "outputs": [],
      "stateMutability": "payable",
      "type": "function"
    },
    {
      "inputs": [
        {
          "internalType": "address",
          "name": "newOwner",
          "type": "address"
        }
      ],
      "name": "transferOwnership",
      "outputs": [],
      "stateMutability": "nonpayable",
      "type": "function"
    },
    {
      "inputs": [
        {
          "internalType": "uint256",
          "name": "_tokenId",
          "type": "uint256"
        }
      ],
      "name": "unstaking",
      "outputs": [],
      "stateMutability": "nonpayable",
      "type": "function"
    },
    {
      "inputs": [
        {
          "internalType": "address",
          "name": "_owner",
          "type": "address"
        }
      ],
      "name": "walletOfOwner",
      "outputs": [
        {
          "internalType": "uint256[]",
          "name": "",
          "type": "uint256[]"
        }
      ],
      "stateMutability": "view",
      "type": "function"
    },
    {
      "inputs": [
        {
          "internalType": "address",
          "name": "",
          "type": "address"
        }
      ],
      "name": "whitelistClaimed",
      "outputs": [
        {
          "internalType": "bool",
          "name": "",
          "type": "bool"
        }
      ],
      "stateMutability": "view",
      "type": "function"
    },
    {
      "inputs": [
        {
          "internalType": "uint256",
          "name": "_mintAmount",
          "type": "uint256"
        },
        {
          "internalType": "bytes32[]",
          "name": "_merkleProof",
          "type": "bytes32[]"
        }
      ],
      "name": "whitelistMint",
      "outputs": [],
      "stateMutability": "payable",
      "type": "function"
    },
    {
      "inputs": [],
      "name": "whitelistMintEnabled",
      "outputs": [
        {
          "internalType": "bool",
          "name": "",
          "type": "bool"
        }
      ],
      "stateMutability": "view",
      "type": "function"
    },
    {
      "inputs": [],
      "name": "withdraw",
      "outputs": [],
      "stateMutability": "nonpayable",
      "type": "function"
    }
  ],
  "bytecode": "0x60806040526000601160006101000a81548160ff0219169083151502179055506000601160016101000a81548160ff0219169083151502179055503480156200004757600080fd5b506040518060400160405280600681526020017f61736461736400000000000000000000000000000000000000000000000000008152506040518060400160405280600681526020017f61736461737300000000000000000000000000000000000000000000000000008152508160029081620000c5919062000485565b508060039081620000d7919062000485565b50620000e86200013460201b60201c565b600081905550505062000110620001046200013d60201b60201c565b6200014560201b60201c565b6001600981905550661550f7dca70000600f8190555060326010819055506200056c565b60006001905090565b600033905090565b6000600860009054906101000a900473ffffffffffffffffffffffffffffffffffffffff16905081600860006101000a81548173ffffffffffffffffffffffffffffffffffffffff021916908373ffffffffffffffffffffffffffffffffffffffff1602179055508173ffffffffffffffffffffffffffffffffffffffff168173ffffffffffffffffffffffffffffffffffffffff167f8be0079c531659141344cd1fd0a4f28419497f9722a3daafe3b4186f6b6457e060405160405180910390a35050565b600081519050919050565b7f4e487b7100000000000000000000000000000000000000000000000000000000600052604160045260246000fd5b7f4e487b7100000000000000000000000000000000000000000000000000000000600052602260045260246000fd5b600060028204905060018216806200028d57607f821691505b602082108103620002a357620002a262000245565b5b50919050565b60008190508160005260206000209050919050565b60006020601f8301049050919050565b600082821b905092915050565b6000600883026200030d7fffffffffffffffffffffffffffffffffffffffffffffffffffffffffffffffff82620002ce565b620003198683620002ce565b95508019841693508086168417925050509392505050565b6000819050919050565b6000819050919050565b600062000366620003606200035a8462000331565b6200033b565b62000331565b9050919050565b6000819050919050565b620003828362000345565b6200039a62000391826200036d565b848454620002db565b825550505050565b600090565b620003b1620003a2565b620003be81848462000377565b505050565b5b81811015620003e657620003da600082620003a7565b600181019050620003c4565b5050565b601f8211156200043557620003ff81620002a9565b6200040a84620002be565b810160208510156200041a578190505b620004326200042985620002be565b830182620003c3565b50505b505050565b600082821c905092915050565b60006200045a600019846008026200043a565b1980831691505092915050565b600062000475838362000447565b9150826002028217905092915050565b62000490826200020b565b67ffffffffffffffff811115620004ac57620004ab62000216565b5b620004b8825462000274565b620004c5828285620003ea565b600060209050601f831160018114620004fd5760008415620004e8578287015190505b620004f4858262000467565b86555062000564565b601f1984166200050d86620002a9565b60005b82811015620005375784890151825560018201915060208501945060208101905062000510565b8683101562000557578489015162000553601f89168262000447565b8355505b6001600288020188555050505b505050505050565b613f52806200057c6000396000f3fe60806040526004361061023b5760003560e01c80637cb647591161012e578063c87b56dd116100ab578063e0a808531161006f578063e0a8085314610864578063e2965f1f1461088d578063e985e9c5146108ca578063efbd73f414610907578063f2fde38b146109305761023b565b8063c87b56dd14610766578063c884ef83146107a3578063d2cab056146107e0578063d5abeb01146107fc578063db4bec44146108275761023b565b806395d89b41116100f257806395d89b41146106a4578063a0712d68146106cf578063a22cb465146106f8578063b767a09814610721578063b88d4fde1461074a5761023b565b80637cb64759146105ad5780638462151c146105d657806386f50df5146106135780638da5cb5b1461065057806390827da71461067b5761023b565b80633ccfd60b116101bc578063518302271161018057806351830227146104c65780636352211e146104f15780636caede3d1461052e57806370a0823114610559578063715018a6146105965761023b565b80633ccfd60b1461040457806342842e0e1461041b57806342966c6814610437578063438b63001461046057806344a0d68a1461049d5761023b565b806318160ddd1161020357806318160ddd1461032c5780631dbb2a221461035757806323b872dd146103805780632eb4a7ab1461039c5780632f745c59146103c75761023b565b806301ffc9a71461024057806306fdde031461027d578063081812fc146102a8578063095ea7b3146102e557806313faede614610301575b600080fd5b34801561024c57600080fd5b5061026760048036038101906102629190612b1c565b610959565b6040516102749190612b64565b60405180910390f35b34801561028957600080fd5b506102926109eb565b60405161029f9190612c0f565b60405180910390f35b3480156102b457600080fd5b506102cf60048036038101906102ca9190612c67565b610a7d565b6040516102dc9190612cd5565b60405180910390f35b6102ff60048036038101906102fa9190612d1c565b610afc565b005b34801561030d57600080fd5b50610316610c40565b6040516103239190612d6b565b60405180910390f35b34801561033857600080fd5b50610341610c46565b60405161034e9190612d6b565b60405180910390f35b34801561036357600080fd5b5061037e60048036038101906103799190612c67565b610c5d565b005b61039a60048036038101906103959190612d86565b610cda565b005b3480156103a857600080fd5b506103b1610ffc565b6040516103be9190612df2565b60405180910390f35b3480156103d357600080fd5b506103ee60048036038101906103e99190612d1c565b611002565b6040516103fb9190612d6b565b60405180910390f35b34801561041057600080fd5b5061041961107c565b005b61043560048036038101906104309190612d86565b611159565b005b34801561044357600080fd5b5061045e60048036038101906104599190612c67565b611179565b005b34801561046c57600080fd5b5061048760048036038101906104829190612e0d565b6112d7565b6040516104949190612ef8565b60405180910390f35b3480156104a957600080fd5b506104c460048036038101906104bf9190612c67565b6113d8565b005b3480156104d257600080fd5b506104db6113ea565b6040516104e89190612b64565b60405180910390f35b3480156104fd57600080fd5b5061051860048036038101906105139190612c67565b6113fd565b6040516105259190612cd5565b60405180910390f35b34801561053a57600080fd5b5061054361140f565b6040516105509190612b64565b60405180910390f35b34801561056557600080fd5b50610580600480360381019061057b9190612e0d565b611422565b60405161058d9190612d6b565b60405180910390f35b3480156105a257600080fd5b506105ab6114da565b005b3480156105b957600080fd5b506105d460048036038101906105cf9190612f46565b6114ee565b005b3480156105e257600080fd5b506105fd60048036038101906105f89190612e0d565b611500565b60405161060a9190612ef8565b60405180910390f35b34801561061f57600080fd5b5061063a60048036038101906106359190612c67565b6115ae565b6040516106479190612d6b565b60405180910390f35b34801561065c57600080fd5b50610665611663565b6040516106729190612cd5565b60405180910390f35b34801561068757600080fd5b506106a2600480360381019061069d9190612c67565b61168d565b005b3480156106b057600080fd5b506106b9611763565b6040516106c69190612c0f565b60405180910390f35b3480156106db57600080fd5b506106f660048036038101906106f19190612c67565b6117f5565b005b34801561070457600080fd5b5061071f600480360381019061071a9190612f9f565b6118a3565b005b34801561072d57600080fd5b5061074860048036038101906107439190612fdf565b6119ae565b005b610764600480360381019061075f9190613141565b6119d3565b005b34801561077257600080fd5b5061078d60048036038101906107889190612c67565b611a46565b60405161079a9190612c0f565b60405180910390f35b3480156107af57600080fd5b506107ca60048036038101906107c59190612e0d565b611afe565b6040516107d79190612b64565b60405180910390f35b6107fa60048036038101906107f59190613224565b611b1e565b005b34801561080857600080fd5b50610811611e20565b60405161081e9190612d6b565b60405180910390f35b34801561083357600080fd5b5061084e60048036038101906108499190612e0d565b611e26565b60405161085b9190612b64565b60405180910390f35b34801561087057600080fd5b5061088b60048036038101906108869190612fdf565b611e46565b005b34801561089957600080fd5b506108b460048036038101906108af9190612c67565b611e6b565b6040516108c19190612d6b565b60405180910390f35b3480156108d657600080fd5b506108f160048036038101906108ec9190613284565b611e83565b6040516108fe9190612b64565b60405180910390f35b34801561091357600080fd5b5061092e600480360381019061092991906132c4565b611f17565b005b34801561093c57600080fd5b5061095760048036038101906109529190612e0d565b611fc7565b005b60006301ffc9a760e01b827bffffffffffffffffffffffffffffffffffffffffffffffffffffffff191614806109b457506380ac58cd60e01b827bffffffffffffffffffffffffffffffffffffffffffffffffffffffff1916145b806109e45750635b5e139f60e01b827bffffffffffffffffffffffffffffffffffffffffffffffffffffffff1916145b9050919050565b6060600280546109fa90613333565b80601f0160208091040260200160405190810160405280929190818152602001828054610a2690613333565b8015610a735780601f10610a4857610100808354040283529160200191610a73565b820191906000526020600020905b815481529060010190602001808311610a5657829003601f168201915b5050505050905090565b6000610a888261204a565b610abe576040517fcf4700e400000000000000000000000000000000000000000000000000000000815260040160405180910390fd5b6006600083815260200190815260200160002060000160009054906101000a900473ffffffffffffffffffffffffffffffffffffffff169050919050565b6000610b07826113fd565b90508073ffffffffffffffffffffffffffffffffffffffff16610b286120a9565b73ffffffffffffffffffffffffffffffffffffffff1614610b8b57610b5481610b4f6120a9565b611e83565b610b8a576040517fcfb3b94200000000000000000000000000000000000000000000000000000000815260040160405180910390fd5b5b826006600084815260200190815260200160002060000160006101000a81548173ffffffffffffffffffffffffffffffffffffffff021916908373ffffffffffffffffffffffffffffffffffffffff160217905550818373ffffffffffffffffffffffffffffffffffffffff168273ffffffffffffffffffffffffffffffffffffffff167f8c5be1e5ebec7d5bd14f71427d1e84f3dd0314c0f7b2291e5b200ac8c7c3b92560405160405180910390a4505050565b600f5481565b6000610c506120b1565b6001546000540303905090565b610c6e610c686120ba565b826120c2565b610cad576040517f08c379a0000000000000000000000000000000000000000000000000000000008152600401610ca4906133d6565b60405180910390fd5b610cbf610cb8611663565b60006118a3565b42600d60008381526020019081526020016000208190555050565b6000610ce5826121a0565b90508373ffffffffffffffffffffffffffffffffffffffff168173ffffffffffffffffffffffffffffffffffffffff1614610d4c576040517fa114810000000000000000000000000000000000000000000000000000000000815260040160405180910390fd5b600080610d588461226c565b91509150610d6e8187610d696120a9565b612293565b610dba57610d8386610d7e6120a9565b611e83565b610db9576040517f59c896be00000000000000000000000000000000000000000000000000000000815260040160405180910390fd5b5b600073ffffffffffffffffffffffffffffffffffffffff168573ffffffffffffffffffffffffffffffffffffffff1603610e20576040517fea553b3400000000000000000000000000000000000000000000000000000000815260040160405180910390fd5b610e2d86868660016122d7565b8015610e3857600082555b600560008773ffffffffffffffffffffffffffffffffffffffff1673ffffffffffffffffffffffffffffffffffffffff168152602001908152602001600020600081546001900391905081905550600560008673ffffffffffffffffffffffffffffffffffffffff1673ffffffffffffffffffffffffffffffffffffffff1681526020019081526020016000206000815460010191905081905550610f0685610ee28888876122dd565b7c020000000000000000000000000000000000000000000000000000000017612305565b600460008681526020019081526020016000208190555060007c0200000000000000000000000000000000000000000000000000000000841603610f8c5760006001850190506000600460008381526020019081526020016000205403610f8a576000548114610f89578360046000838152602001908152602001600020819055505b5b505b838573ffffffffffffffffffffffffffffffffffffffff168773ffffffffffffffffffffffffffffffffffffffff167fddf252ad1be2c89b69c2b068fc378daa952ba7f163c4a11628f55a4df523b3ef60405160405180910390a4610ff48686866001612330565b505050505050565b600a5481565b600061100d83611422565b821061104e576040517f08c379a000000000000000000000000000000000000000000000000000000000815260040161104590613468565b60405180910390fd5b61105783612336565b828154811061106957611068613488565b5b9060005260206000200154905092915050565b61108461237e565b6002600954036110c9576040517f08c379a00000000000000000000000000000000000000000000000000000000081526004016110c090613503565b60405180910390fd5b600260098190555060006110db611663565b73ffffffffffffffffffffffffffffffffffffffff16476040516110fe90613554565b60006040518083038185875af1925050503d806000811461113b576040519150601f19603f3d011682016040523d82523d6000602084013e611140565b606091505b505090508061114e57600080fd5b506001600981905550565b611174838383604051806020016040528060008152506119d3565b505050565b61118a6111846120ba565b826120c2565b6111c9576040517f08c379a00000000000000000000000000000000000000000000000000000000081526004016111c0906133d6565b60405180910390fd5b60001515600e60006111d96120ba565b73ffffffffffffffffffffffffffffffffffffffff1673ffffffffffffffffffffffffffffffffffffffff16815260200190815260200160002060009054906101000a900460ff16151514611263576040517f08c379a000000000000000000000000000000000000000000000000000000000815260040161125a906135db565b60405180910390fd5b61127561126e6120ba565b60006118a3565b6001600e60006112836120ba565b73ffffffffffffffffffffffffffffffffffffffff1673ffffffffffffffffffffffffffffffffffffffff16815260200190815260200160002060006101000a81548160ff02191690831515021790555050565b606060006112e483611422565b905060008167ffffffffffffffff81111561130257611301613016565b5b6040519080825280602002602001820160405280156113305781602001602082028036833780820191505090505b509050600061133d6120b1565b90506000805b848210156113cb57611354836113fd565b90508673ffffffffffffffffffffffffffffffffffffffff168173ffffffffffffffffffffffffffffffffffffffff16036113b8578284838151811061139d5761139c613488565b5b60200260200101818152505081806113b49061362a565b9250505b82806113c39061362a565b935050611343565b8395505050505050919050565b6113e061237e565b80600f8190555050565b601160019054906101000a900460ff1681565b6000611408826121a0565b9050919050565b601160009054906101000a900460ff1681565b60008073ffffffffffffffffffffffffffffffffffffffff168273ffffffffffffffffffffffffffffffffffffffff1603611489576040517f8f4eb60400000000000000000000000000000000000000000000000000000000815260040160405180910390fd5b67ffffffffffffffff600560008473ffffffffffffffffffffffffffffffffffffffff1673ffffffffffffffffffffffffffffffffffffffff16815260200190815260200160002054169050919050565b6114e261237e565b6114ec60006123fc565b565b6114f661237e565b80600a8190555050565b6060600061150d83611422565b905060008167ffffffffffffffff81111561152b5761152a613016565b5b6040519080825280602002602001820160405280156115595781602001602082028036833780820191505090505b50905060005b828110156115a3576115718582611002565b82828151811061158457611583613488565b5b602002602001018181525050808061159b9061362a565b91505061155f565b508092505050919050565b60006115b98261204a565b6115f8576040517f08c379a00000000000000000000000000000000000000000000000000000000081526004016115ef906136e4565b60405180910390fd5b6116096116036120ba565b836120c2565b611648576040517f08c379a000000000000000000000000000000000000000000000000000000000815260040161163f906133d6565b60405180910390fd5b600d6000838152602001908152602001600020549050919050565b6000600860009054906101000a900473ffffffffffffffffffffffffffffffffffffffff16905090565b61169e6116986120ba565b826120c2565b6116dd576040517f08c379a00000000000000000000000000000000000000000000000000000000081526004016116d4906133d6565b60405180910390fd5b62278d00600d60008381526020019081526020016000205411611735576040517f08c379a000000000000000000000000000000000000000000000000000000000815260040161172c90613750565b60405180910390fd5b6117476117406120ba565b60016118a3565b6000600d60008381526020019081526020016000208190555050565b60606003805461177290613333565b80601f016020809104026020016040519081016040528092919081815260200182805461179e90613333565b80156117eb5780601f106117c0576101008083540402835291602001916117eb565b820191906000526020600020905b8154815290600101906020018083116117ce57829003601f168201915b5050505050905090565b60008111611838576040517f08c379a000000000000000000000000000000000000000000000000000000000815260040161182f906137bc565b60405180910390fd5b60105481611844610c46565b61184e91906137dc565b111561188f576040517f08c379a00000000000000000000000000000000000000000000000000000000081526004016118869061385c565b60405180910390fd5b6118a061189a6120ba565b826124c2565b50565b80600760006118b06120a9565b73ffffffffffffffffffffffffffffffffffffffff1673ffffffffffffffffffffffffffffffffffffffff16815260200190815260200160002060008473ffffffffffffffffffffffffffffffffffffffff1673ffffffffffffffffffffffffffffffffffffffff16815260200190815260200160002060006101000a81548160ff0219169083151502179055508173ffffffffffffffffffffffffffffffffffffffff1661195d6120a9565b73ffffffffffffffffffffffffffffffffffffffff167f17307eab39ab6107e8899845ad3d59bd9653f200f220920489ca2b5937696c31836040516119a29190612b64565b60405180910390a35050565b6119b661237e565b80601160006101000a81548160ff02191690831515021790555050565b6119de848484610cda565b60008373ffffffffffffffffffffffffffffffffffffffff163b14611a4057611a09848484846124e0565b611a3f576040517fd1a57ed600000000000000000000000000000000000000000000000000000000815260040160405180910390fd5b5b50505050565b6060611a518261204a565b611a90576040517f08c379a0000000000000000000000000000000000000000000000000000000008152600401611a87906136e4565b60405180910390fd5b6000604051806060016040528060368152602001613ee76036913990506000815111611acb5760405180602001604052806000815250611af6565b80611ad584612630565b604051602001611ae6929190613904565b6040516020818303038152906040525b915050919050565b600e6020528060005260406000206000915054906101000a900460ff1681565b60008311611b61576040517f08c379a0000000000000000000000000000000000000000000000000000000008152600401611b58906137bc565b60405180910390fd5b60105483611b6d610c46565b611b7791906137dc565b1115611bb8576040517f08c379a0000000000000000000000000000000000000000000000000000000008152600401611baf9061385c565b60405180910390fd5b82600f54611bc69190613933565b341015611c08576040517f08c379a0000000000000000000000000000000000000000000000000000000008152600401611bff906139c1565b60405180910390fd5b601160009054906101000a900460ff16611c57576040517f08c379a0000000000000000000000000000000000000000000000000000000008152600401611c4e90613a53565b60405180910390fd5b600c6000611c636120ba565b73ffffffffffffffffffffffffffffffffffffffff1673ffffffffffffffffffffffffffffffffffffffff16815260200190815260200160002060009054906101000a900460ff1615611ceb576040517f08c379a0000000000000000000000000000000000000000000000000000000008152600401611ce290613abf565b60405180910390fd5b6000611cf56120ba565b604051602001611d059190613b27565b604051602081830303815290604052805190602001209050611d6b838380806020026020016040519081016040528093929190818152602001838360200280828437600081840152601f19601f82011690508083019250505050505050600a5483612790565b611daa576040517f08c379a0000000000000000000000000000000000000000000000000000000008152600401611da190613b8e565b60405180910390fd5b6001600c6000611db86120ba565b73ffffffffffffffffffffffffffffffffffffffff1673ffffffffffffffffffffffffffffffffffffffff16815260200190815260200160002060006101000a81548160ff021916908315150217905550611e1a611e146120ba565b856124c2565b50505050565b60105481565b600c6020528060005260406000206000915054906101000a900460ff1681565b611e4e61237e565b80601160016101000a81548160ff02191690831515021790555050565b600d6020528060005260406000206000915090505481565b6000600760008473ffffffffffffffffffffffffffffffffffffffff1673ffffffffffffffffffffffffffffffffffffffff16815260200190815260200160002060008373ffffffffffffffffffffffffffffffffffffffff1673ffffffffffffffffffffffffffffffffffffffff16815260200190815260200160002060009054906101000a900460ff16905092915050565b611f1f61237e565b60008211611f62576040517f08c379a0000000000000000000000000000000000000000000000000000000008152600401611f59906137bc565b60405180910390fd5b60105482611f6e610c46565b611f7891906137dc565b1115611fb9576040517f08c379a0000000000000000000000000000000000000000000000000000000008152600401611fb09061385c565b60405180910390fd5b611fc381836124c2565b5050565b611fcf61237e565b600073ffffffffffffffffffffffffffffffffffffffff168173ffffffffffffffffffffffffffffffffffffffff160361203e576040517f08c379a000000000000000000000000000000000000000000000000000000000815260040161203590613c20565b60405180910390fd5b612047816123fc565b50565b6000816120556120b1565b11158015612064575060005482105b80156120a2575060007c0100000000000000000000000000000000000000000000000000000000600460008581526020019081526020016000205416145b9050919050565b600033905090565b60006001905090565b600033905090565b60006120cd8261204a565b61210c576040517f08c379a000000000000000000000000000000000000000000000000000000000815260040161210390613cb2565b60405180910390fd5b6000612117836113fd565b90508073ffffffffffffffffffffffffffffffffffffffff168473ffffffffffffffffffffffffffffffffffffffff16148061218657508373ffffffffffffffffffffffffffffffffffffffff1661216e84610a7d565b73ffffffffffffffffffffffffffffffffffffffff16145b8061219757506121968185611e83565b5b91505092915050565b600080829050806121af6120b1565b11612235576000548110156122345760006004600083815260200190815260200160002054905060007c0100000000000000000000000000000000000000000000000000000000821603612232575b600081036122285760046000836001900393508381526020019081526020016000205490506121fe565b8092505050612267565b505b5b6040517fdf2d9b4200000000000000000000000000000000000000000000000000000000815260040160405180910390fd5b919050565b60008060006006600085815260200190815260200160002090508092508254915050915091565b600073ffffffffffffffffffffffffffffffffffffffff8316925073ffffffffffffffffffffffffffffffffffffffff821691508382148383141790509392505050565b50505050565b60008060e883901c905060e86122f48686846127a7565b62ffffff16901b9150509392505050565b600073ffffffffffffffffffffffffffffffffffffffff83169250814260a01b178317905092915050565b50505050565b6000600b60008373ffffffffffffffffffffffffffffffffffffffff1673ffffffffffffffffffffffffffffffffffffffff1681526020019081526020016000209050919050565b6123866120ba565b73ffffffffffffffffffffffffffffffffffffffff166123a4611663565b73ffffffffffffffffffffffffffffffffffffffff16146123fa576040517f08c379a00000000000000000000000000000000000000000000000000000000081526004016123f190613d1e565b60405180910390fd5b565b6000600860009054906101000a900473ffffffffffffffffffffffffffffffffffffffff16905081600860006101000a81548173ffffffffffffffffffffffffffffffffffffffff021916908373ffffffffffffffffffffffffffffffffffffffff1602179055508173ffffffffffffffffffffffffffffffffffffffff168173ffffffffffffffffffffffffffffffffffffffff167f8be0079c531659141344cd1fd0a4f28419497f9722a3daafe3b4186f6b6457e060405160405180910390a35050565b6124dc8282604051806020016040528060008152506127b0565b5050565b60008373ffffffffffffffffffffffffffffffffffffffff1663150b7a026125066120a9565b8786866040518563ffffffff1660e01b81526004016125289493929190613d93565b6020604051808303816000875af192505050801561256457506040513d601f19601f820116820180604052508101906125619190613df4565b60015b6125dd573d8060008114612594576040519150601f19603f3d011682016040523d82523d6000602084013e612599565b606091505b5060008151036125d5576040517fd1a57ed600000000000000000000000000000000000000000000000000000000815260040160405180910390fd5b805181602001fd5b63150b7a0260e01b7bffffffffffffffffffffffffffffffffffffffffffffffffffffffff1916817bffffffffffffffffffffffffffffffffffffffffffffffffffffffff191614915050949350505050565b606060008203612677576040518060400160405280600181526020017f3000000000000000000000000000000000000000000000000000000000000000815250905061278b565b600082905060005b600082146126a95780806126929061362a565b915050600a826126a29190613e50565b915061267f565b60008167ffffffffffffffff8111156126c5576126c4613016565b5b6040519080825280601f01601f1916602001820160405280156126f75781602001600182028036833780820191505090505b5090505b60008514612784576001826127109190613e81565b9150600a8561271f9190613eb5565b603061272b91906137dc565b60f81b81838151811061274157612740613488565b5b60200101907effffffffffffffffffffffffffffffffffffffffffffffffffffffffffffff1916908160001a905350600a8561277d9190613e50565b94506126fb565b8093505050505b919050565b60008261279d858461284d565b1490509392505050565b60009392505050565b6127ba83836128a3565b60008373ffffffffffffffffffffffffffffffffffffffff163b1461284857600080549050600083820390505b6127fa60008683806001019450866124e0565b612830576040517fd1a57ed600000000000000000000000000000000000000000000000000000000815260040160405180910390fd5b8181106127e757816000541461284557600080fd5b50505b505050565b60008082905060005b8451811015612898576128838286838151811061287657612875613488565b5b6020026020010151612a5e565b915080806128909061362a565b915050612856565b508091505092915050565b600080549050600082036128e3576040517fb562e8dd00000000000000000000000000000000000000000000000000000000815260040160405180910390fd5b6128f060008483856122d7565b600160406001901b178202600560008573ffffffffffffffffffffffffffffffffffffffff1673ffffffffffffffffffffffffffffffffffffffff168152602001908152602001600020600082825401925050819055506129678361295860008660006122dd565b61296185612a89565b17612305565b6004600083815260200190815260200160002081905550600080838301905073ffffffffffffffffffffffffffffffffffffffff85169150828260007fddf252ad1be2c89b69c2b068fc378daa952ba7f163c4a11628f55a4df523b3ef600080a4600183015b818114612a0857808360007fddf252ad1be2c89b69c2b068fc378daa952ba7f163c4a11628f55a4df523b3ef600080a46001810190506129cd565b5060008203612a43576040517f2e07630000000000000000000000000000000000000000000000000000000000815260040160405180910390fd5b806000819055505050612a596000848385612330565b505050565b6000818310612a7657612a718284612a99565b612a81565b612a808383612a99565b5b905092915050565b60006001821460e11b9050919050565b600082600052816020526040600020905092915050565b6000604051905090565b600080fd5b600080fd5b60007fffffffff0000000000000000000000000000000000000000000000000000000082169050919050565b612af981612ac4565b8114612b0457600080fd5b50565b600081359050612b1681612af0565b92915050565b600060208284031215612b3257612b31612aba565b5b6000612b4084828501612b07565b91505092915050565b60008115159050919050565b612b5e81612b49565b82525050565b6000602082019050612b796000830184612b55565b92915050565b600081519050919050565b600082825260208201905092915050565b60005b83811015612bb9578082015181840152602081019050612b9e565b60008484015250505050565b6000601f19601f8301169050919050565b6000612be182612b7f565b612beb8185612b8a565b9350612bfb818560208601612b9b565b612c0481612bc5565b840191505092915050565b60006020820190508181036000830152612c298184612bd6565b905092915050565b6000819050919050565b612c4481612c31565b8114612c4f57600080fd5b50565b600081359050612c6181612c3b565b92915050565b600060208284031215612c7d57612c7c612aba565b5b6000612c8b84828501612c52565b91505092915050565b600073ffffffffffffffffffffffffffffffffffffffff82169050919050565b6000612cbf82612c94565b9050919050565b612ccf81612cb4565b82525050565b6000602082019050612cea6000830184612cc6565b92915050565b612cf981612cb4565b8114612d0457600080fd5b50565b600081359050612d1681612cf0565b92915050565b60008060408385031215612d3357612d32612aba565b5b6000612d4185828601612d07565b9250506020612d5285828601612c52565b9150509250929050565b612d6581612c31565b82525050565b6000602082019050612d806000830184612d5c565b92915050565b600080600060608486031215612d9f57612d9e612aba565b5b6000612dad86828701612d07565b9350506020612dbe86828701612d07565b9250506040612dcf86828701612c52565b9150509250925092565b6000819050919050565b612dec81612dd9565b82525050565b6000602082019050612e076000830184612de3565b92915050565b600060208284031215612e2357612e22612aba565b5b6000612e3184828501612d07565b91505092915050565b600081519050919050565b600082825260208201905092915050565b6000819050602082019050919050565b612e6f81612c31565b82525050565b6000612e818383612e66565b60208301905092915050565b6000602082019050919050565b6000612ea582612e3a565b612eaf8185612e45565b9350612eba83612e56565b8060005b83811015612eeb578151612ed28882612e75565b9750612edd83612e8d565b925050600181019050612ebe565b5085935050505092915050565b60006020820190508181036000830152612f128184612e9a565b905092915050565b612f2381612dd9565b8114612f2e57600080fd5b50565b600081359050612f4081612f1a565b92915050565b600060208284031215612f5c57612f5b612aba565b5b6000612f6a84828501612f31565b91505092915050565b612f7c81612b49565b8114612f8757600080fd5b50565b600081359050612f9981612f73565b92915050565b60008060408385031215612fb657612fb5612aba565b5b6000612fc485828601612d07565b9250506020612fd585828601612f8a565b9150509250929050565b600060208284031215612ff557612ff4612aba565b5b600061300384828501612f8a565b91505092915050565b600080fd5b600080fd5b7f4e487b7100000000000000000000000000000000000000000000000000000000600052604160045260246000fd5b61304e82612bc5565b810181811067ffffffffffffffff8211171561306d5761306c613016565b5b80604052505050565b6000613080612ab0565b905061308c8282613045565b919050565b600067ffffffffffffffff8211156130ac576130ab613016565b5b6130b582612bc5565b9050602081019050919050565b82818337600083830152505050565b60006130e46130df84613091565b613076565b905082815260208101848484011115613100576130ff613011565b5b61310b8482856130c2565b509392505050565b600082601f8301126131285761312761300c565b5b81356131388482602086016130d1565b91505092915050565b6000806000806080858703121561315b5761315a612aba565b5b600061316987828801612d07565b945050602061317a87828801612d07565b935050604061318b87828801612c52565b925050606085013567ffffffffffffffff8111156131ac576131ab612abf565b5b6131b887828801613113565b91505092959194509250565b600080fd5b600080fd5b60008083601f8401126131e4576131e361300c565b5b8235905067ffffffffffffffff811115613201576132006131c4565b5b60208301915083602082028301111561321d5761321c6131c9565b5b9250929050565b60008060006040848603121561323d5761323c612aba565b5b600061324b86828701612c52565b935050602084013567ffffffffffffffff81111561326c5761326b612abf565b5b613278868287016131ce565b92509250509250925092565b6000806040838503121561329b5761329a612aba565b5b60006132a985828601612d07565b92505060206132ba85828601612d07565b9150509250929050565b600080604083850312156132db576132da612aba565b5b60006132e985828601612c52565b92505060206132fa85828601612d07565b9150509250929050565b7f4e487b7100000000000000000000000000000000000000000000000000000000600052602260045260246000fd5b6000600282049050600182168061334b57607f821691505b60208210810361335e5761335d613304565b5b50919050565b7f4552433732314275726e61626c653a2063616c6c6572206973206e6f74206f7760008201527f6e6572206e6f7220617070726f76656400000000000000000000000000000000602082015250565b60006133c0603083612b8a565b91506133cb82613364565b604082019050919050565b600060208201905081810360008301526133ef816133b3565b9050919050565b7f455243373231456e756d657261626c653a206f776e657220696e646578206f7560008201527f74206f6620626f756e6473000000000000000000000000000000000000000000602082015250565b6000613452602b83612b8a565b915061345d826133f6565b604082019050919050565b6000602082019050818103600083015261348181613445565b9050919050565b7f4e487b7100000000000000000000000000000000000000000000000000000000600052603260045260246000fd5b7f5265656e7472616e637947756172643a207265656e7472616e742063616c6c00600082015250565b60006134ed601f83612b8a565b91506134f8826134b7565b602082019050919050565b6000602082019050818103600083015261351c816134e0565b9050919050565b600081905092915050565b50565b600061353e600083613523565b91506135498261352e565b600082019050919050565b600061355f82613531565b9150819050919050565b7f596f75206861766520616c726561647920636c61696d656420796f757220726560008201527f7761726421000000000000000000000000000000000000000000000000000000602082015250565b60006135c5602583612b8a565b91506135d082613569565b604082019050919050565b600060208201905081810360008301526135f4816135b8565b9050919050565b7f4e487b7100000000000000000000000000000000000000000000000000000000600052601160045260246000fd5b600061363582612c31565b91507fffffffffffffffffffffffffffffffffffffffffffffffffffffffffffffffff8203613667576136666135fb565b5b600182019050919050565b7f4552433732314d657461646174613a2055524920717565727920666f72206e6f60008201527f6e6578697374656e7420746f6b656e0000000000000000000000000000000000602082015250565b60006136ce602f83612b8a565b91506136d982613672565b604082019050919050565b600060208201905081810360008301526136fd816136c1565b9050919050565b7f596f752063616e206e6f7420756e7374616b696e672079657400000000000000600082015250565b600061373a601983612b8a565b915061374582613704565b602082019050919050565b600060208201905081810360008301526137698161372d565b9050919050565b7f496e76616c6964206d696e7420616d6f756e7421000000000000000000000000600082015250565b60006137a6601483612b8a565b91506137b182613770565b602082019050919050565b600060208201905081810360008301526137d581613799565b9050919050565b60006137e782612c31565b91506137f283612c31565b925082820190508082111561380a576138096135fb565b5b92915050565b7f4d617820737570706c7920657863656564656421000000000000000000000000600082015250565b6000613846601483612b8a565b915061385182613810565b602082019050919050565b6000602082019050818103600083015261387581613839565b9050919050565b600081905092915050565b600061389282612b7f565b61389c818561387c565b93506138ac818560208601612b9b565b80840191505092915050565b7f2e6a736f6e000000000000000000000000000000000000000000000000000000600082015250565b60006138ee60058361387c565b91506138f9826138b8565b600582019050919050565b60006139108285613887565b915061391c8284613887565b9150613927826138e1565b91508190509392505050565b600061393e82612c31565b915061394983612c31565b925082820261395781612c31565b9150828204841483151761396e5761396d6135fb565b5b5092915050565b7f496e73756666696369656e742066756e64732100000000000000000000000000600082015250565b60006139ab601383612b8a565b91506139b682613975565b602082019050919050565b600060208201905081810360008301526139da8161399e565b9050919050565b7f5468652077686974656c6973742073616c65206973206e6f7420656e61626c6560008201527f6421000000000000000000000000000000000000000000000000000000000000602082015250565b6000613a3d602283612b8a565b9150613a48826139e1565b604082019050919050565b60006020820190508181036000830152613a6c81613a30565b9050919050565b7f4164647265737320616c726561647920636c61696d6564210000000000000000600082015250565b6000613aa9601883612b8a565b9150613ab482613a73565b602082019050919050565b60006020820190508181036000830152613ad881613a9c565b9050919050565b60008160601b9050919050565b6000613af782613adf565b9050919050565b6000613b0982613aec565b9050919050565b613b21613b1c82612cb4565b613afe565b82525050565b6000613b338284613b10565b60148201915081905092915050565b7f496e76616c69642070726f6f6621000000000000000000000000000000000000600082015250565b6000613b78600e83612b8a565b9150613b8382613b42565b602082019050919050565b60006020820190508181036000830152613ba781613b6b565b9050919050565b7f4f776e61626c653a206e6577206f776e657220697320746865207a65726f206160008201527f6464726573730000000000000000000000000000000000000000000000000000602082015250565b6000613c0a602683612b8a565b9150613c1582613bae565b604082019050919050565b60006020820190508181036000830152613c3981613bfd565b9050919050565b7f4552433732313a206f70657261746f7220717565727920666f72206e6f6e657860008201527f697374656e7420746f6b656e0000000000000000000000000000000000000000602082015250565b6000613c9c602c83612b8a565b9150613ca782613c40565b604082019050919050565b60006020820190508181036000830152613ccb81613c8f565b9050919050565b7f4f776e61626c653a2063616c6c6572206973206e6f7420746865206f776e6572600082015250565b6000613d08602083612b8a565b9150613d1382613cd2565b602082019050919050565b60006020820190508181036000830152613d3781613cfb565b9050919050565b600081519050919050565b600082825260208201905092915050565b6000613d6582613d3e565b613d6f8185613d49565b9350613d7f818560208601612b9b565b613d8881612bc5565b840191505092915050565b6000608082019050613da86000830187612cc6565b613db56020830186612cc6565b613dc26040830185612d5c565b8181036060830152613dd48184613d5a565b905095945050505050565b600081519050613dee81612af0565b92915050565b600060208284031215613e0a57613e09612aba565b5b6000613e1884828501613ddf565b91505092915050565b7f4e487b7100000000000000000000000000000000000000000000000000000000600052601260045260246000fd5b6000613e5b82612c31565b9150613e6683612c31565b925082613e7657613e75613e21565b5b828204905092915050565b6000613e8c82612c31565b9150613e9783612c31565b9250828203905081811115613eaf57613eae6135fb565b5b92915050565b6000613ec082612c31565b9150613ecb83612c31565b925082613edb57613eda613e21565b5b82820690509291505056fe697066733a2f2f516d545874534d32425354486e4474794b7750644b59455644567a64554c726659583850504a54314853745454752fa2646970667358221220d54e8db8f4ec943b907f11c4e0716c773b9640d1b63bae8da0d5001cfdd1a7a464736f6c63430008110033",
  "linkReferences": {},
  "deployedLinkReferences": {}
}