{
  "_format": "hh-sol-artifact-1",
  "contractName": "CryptoBlueBerry",
  "sourceName": "contracts/CryptoBlueBerry.sol",
  "abi": [
    {
      "inputs": [],
      "stateMutability": "nonpayable",
      "type": "constructor"
    },
    {
      "inputs": [],
      "name": "ApprovalCallerNotOwnerNorApproved",
      "type": "error"
    },
    {
      "inputs": [],
      "name": "ApprovalQueryForNonexistentToken",
      "type": "error"
    },
    {
      "inputs": [],
      "name": "BalanceQueryForZeroAddress",
      "type": "error"
    },
    {
      "inputs": [],
      "name": "MintERC2309QuantityExceedsLimit",
      "type": "error"
    },
    {
      "inputs": [],
      "name": "MintToZeroAddress",
      "type": "error"
    },
    {
      "inputs": [],
      "name": "MintZeroQuantity",
      "type": "error"
    },
    {
      "inputs": [],
      "name": "OwnerQueryForNonexistentToken",
      "type": "error"
    },
    {
      "inputs": [],
      "name": "OwnershipNotInitializedForExtraData",
      "type": "error"
    },
    {
      "inputs": [],
      "name": "TransferCallerNotOwnerNorApproved",
      "type": "error"
    },
    {
      "inputs": [],
      "name": "TransferFromIncorrectOwner",
      "type": "error"
    },
    {
      "inputs": [],
      "name": "TransferToNonERC721ReceiverImplementer",
      "type": "error"
    },
    {
      "inputs": [],
      "name": "TransferToZeroAddress",
      "type": "error"
    },
    {
      "inputs": [],
      "name": "URIQueryForNonexistentToken",
      "type": "error"
    },
    {
      "anonymous": false,
      "inputs": [
        {
          "indexed": true,
          "internalType": "address",
          "name": "owner",
          "type": "address"
        },
        {
          "indexed": true,
          "internalType": "address",
          "name": "approved",
          "type": "address"
        },
        {
          "indexed": true,
          "internalType": "uint256",
          "name": "tokenId",
          "type": "uint256"
        }
      ],
      "name": "Approval",
      "type": "event"
    },
    {
      "anonymous": false,
      "inputs": [
        {
          "indexed": true,
          "internalType": "address",
          "name": "owner",
          "type": "address"
        },
        {
          "indexed": true,
          "internalType": "address",
          "name": "operator",
          "type": "address"
        },
        {
          "indexed": false,
          "internalType": "bool",
          "name": "approved",
          "type": "bool"
        }
      ],
      "name": "ApprovalForAll",
      "type": "event"
    },
    {
      "anonymous": false,
      "inputs": [
        {
          "indexed": true,
          "internalType": "uint256",
          "name": "fromTokenId",
          "type": "uint256"
        },
        {
          "indexed": false,
          "internalType": "uint256",
          "name": "toTokenId",
          "type": "uint256"
        },
        {
          "indexed": true,
          "internalType": "address",
          "name": "from",
          "type": "address"
        },
        {
          "indexed": true,
          "internalType": "address",
          "name": "to",
          "type": "address"
        }
      ],
      "name": "ConsecutiveTransfer",
      "type": "event"
    },
    {
      "anonymous": false,
      "inputs": [
        {
          "indexed": true,
          "internalType": "address",
          "name": "previousOwner",
          "type": "address"
        },
        {
          "indexed": true,
          "internalType": "address",
          "name": "newOwner",
          "type": "address"
        }
      ],
      "name": "OwnershipTransferred",
      "type": "event"
    },
    {
      "anonymous": false,
      "inputs": [
        {
          "indexed": true,
          "internalType": "address",
          "name": "from",
          "type": "address"
        },
        {
          "indexed": true,
          "internalType": "address",
          "name": "to",
          "type": "address"
        },
        {
          "indexed": true,
          "internalType": "uint256",
          "name": "tokenId",
          "type": "uint256"
        }
      ],
      "name": "Transfer",
      "type": "event"
    },
    {
      "inputs": [
        {
          "internalType": "address",
          "name": "from",
          "type": "address"
        },
        {
          "internalType": "address",
          "name": "to",
          "type": "address"
        },
        {
          "internalType": "uint256",
          "name": "tokenId",
          "type": "uint256"
        }
      ],
      "name": "_transferFrom",
      "outputs": [],
      "stateMutability": "nonpayable",
      "type": "function"
    },
    {
      "inputs": [
        {
          "internalType": "address",
          "name": "to",
          "type": "address"
        },
        {
          "internalType": "uint256",
          "name": "tokenId",
          "type": "uint256"
        }
      ],
      "name": "approve",
      "outputs": [],
      "stateMutability": "payable",
      "type": "function"
    },
    {
      "inputs": [
        {
          "internalType": "address",
          "name": "owner",
          "type": "address"
        }
      ],
      "name": "balanceOf",
      "outputs": [
        {
          "internalType": "uint256",
          "name": "",
          "type": "uint256"
        }
      ],
      "stateMutability": "view",
      "type": "function"
    },
    {
      "inputs": [
        {
          "internalType": "address",
          "name": "",
          "type": "address"
        }
      ],
      "name": "claimed",
      "outputs": [
        {
          "internalType": "bool",
          "name": "",
          "type": "bool"
        }
      ],
      "stateMutability": "view",
      "type": "function"
    },
    {
      "inputs": [
        {
          "internalType": "uint256",
          "name": "_tokenId",
          "type": "uint256"
        }
      ],
      "name": "claimedRewards",
      "outputs": [],
      "stateMutability": "nonpayable",
      "type": "function"
    },
    {
      "inputs": [],
      "name": "cost",
      "outputs": [
        {
          "internalType": "uint256",
          "name": "",
          "type": "uint256"
        }
      ],
      "stateMutability": "view",
      "type": "function"
    },
    {
      "inputs": [
        {
          "internalType": "uint256",
          "name": "_mintAmount",
          "type": "uint256"
        }
      ],
      "name": "creditCard",
      "outputs": [],
      "stateMutability": "nonpayable",
      "type": "function"
    },
    {
      "inputs": [
        {
          "internalType": "uint256",
          "name": "tokenId",
          "type": "uint256"
        }
      ],
      "name": "getApproved",
      "outputs": [
        {
          "internalType": "address",
          "name": "",
          "type": "address"
        }
      ],
      "stateMutability": "view",
      "type": "function"
    },
    {
      "inputs": [
        {
          "internalType": "address",
          "name": "owner",
          "type": "address"
        },
        {
          "internalType": "address",
          "name": "operator",
          "type": "address"
        }
      ],
      "name": "isApprovedForAll",
      "outputs": [
        {
          "internalType": "bool",
          "name": "",
          "type": "bool"
        }
      ],
      "stateMutability": "view",
      "type": "function"
    },
    {
      "inputs": [],
      "name": "maxSupply",
      "outputs": [
        {
          "internalType": "uint256",
          "name": "",
          "type": "uint256"
        }
      ],
      "stateMutability": "view",
      "type": "function"
    },
    {
      "inputs": [],
      "name": "merkleRoot",
      "outputs": [
        {
          "internalType": "bytes32",
          "name": "",
          "type": "bytes32"
        }
      ],
      "stateMutability": "view",
      "type": "function"
    },
    {
      "inputs": [
        {
          "internalType": "uint256",
          "name": "_mintAmount",
          "type": "uint256"
        }
      ],
      "name": "mint",
      "outputs": [],
      "stateMutability": "payable",
      "type": "function"
    },
    {
      "inputs": [
        {
          "internalType": "uint256",
          "name": "_mintAmount",
          "type": "uint256"
        },
        {
          "internalType": "address",
          "name": "_receiver",
          "type": "address"
        }
      ],
      "name": "mintForAddress",
      "outputs": [],
      "stateMutability": "nonpayable",
      "type": "function"
    },
    {
      "inputs": [],
      "name": "name",
      "outputs": [
        {
          "internalType": "string",
          "name": "",
          "type": "string"
        }
      ],
      "stateMutability": "view",
      "type": "function"
    },
    {
      "inputs": [],
      "name": "owner",
      "outputs": [
        {
          "internalType": "address",
          "name": "",
          "type": "address"
        }
      ],
      "stateMutability": "view",
      "type": "function"
    },
    {
      "inputs": [
        {
          "internalType": "uint256",
          "name": "tokenId",
          "type": "uint256"
        }
      ],
      "name": "ownerOf",
      "outputs": [
        {
          "internalType": "address",
          "name": "",
          "type": "address"
        }
      ],
      "stateMutability": "view",
      "type": "function"
    },
    {
      "inputs": [
        {
          "internalType": "uint256",
          "name": "_tokenId",
          "type": "uint256"
        }
      ],
      "name": "pawned",
      "outputs": [
        {
          "internalType": "bool",
          "name": "",
          "type": "bool"
        }
      ],
      "stateMutability": "nonpayable",
      "type": "function"
    },
    {
      "inputs": [],
      "name": "renounceOwnership",
      "outputs": [],
      "stateMutability": "nonpayable",
      "type": "function"
    },
    {
      "inputs": [
        {
          "internalType": "address",
          "name": "from",
          "type": "address"
        },
        {
          "internalType": "address",
          "name": "to",
          "type": "address"
        },
        {
          "internalType": "uint256",
          "name": "tokenId",
          "type": "uint256"
        }
      ],
      "name": "safeTransferFrom",
      "outputs": [],
      "stateMutability": "payable",
      "type": "function"
    },
    {
      "inputs": [
        {
          "internalType": "address",
          "name": "from",
          "type": "address"
        },
        {
          "internalType": "address",
          "name": "to",
          "type": "address"
        },
        {
          "internalType": "uint256",
          "name": "tokenId",
          "type": "uint256"
        },
        {
          "internalType": "bytes",
          "name": "_data",
          "type": "bytes"
        }
      ],
      "name": "safeTransferFrom",
      "outputs": [],
      "stateMutability": "payable",
      "type": "function"
    },
    {
      "inputs": [
        {
          "internalType": "address",
          "name": "operator",
          "type": "address"
        },
        {
          "internalType": "bool",
          "name": "approved",
          "type": "bool"
        }
      ],
      "name": "setApprovalForAll",
      "outputs": [],
      "stateMutability": "nonpayable",
      "type": "function"
    },
    {
      "inputs": [
        {
          "internalType": "uint256",
          "name": "_cost",
          "type": "uint256"
        }
      ],
      "name": "setCost",
      "outputs": [],
      "stateMutability": "nonpayable",
      "type": "function"
    },
    {
      "inputs": [
        {
          "internalType": "bytes32",
          "name": "_merkleRoot",
          "type": "bytes32"
        }
      ],
      "name": "setMerkleRoot",
      "outputs": [],
      "stateMutability": "nonpayable",
      "type": "function"
    },
    {
      "inputs": [
        {
          "internalType": "bool",
          "name": "_state",
          "type": "bool"
        }
      ],
      "name": "setWhitelistMintEnabled",
      "outputs": [],
      "stateMutability": "nonpayable",
      "type": "function"
    },
    {
      "inputs": [
        {
          "internalType": "uint256",
          "name": "_tokenId",
          "type": "uint256"
        }
      ],
      "name": "staking",
      "outputs": [],
      "stateMutability": "nonpayable",
      "type": "function"
    },
    {
      "inputs": [
        {
          "internalType": "bytes4",
          "name": "interfaceId",
          "type": "bytes4"
        }
      ],
      "name": "supportsInterface",
      "outputs": [
        {
          "internalType": "bool",
          "name": "",
          "type": "bool"
        }
      ],
      "stateMutability": "view",
      "type": "function"
    },
    {
      "inputs": [],
      "name": "symbol",
      "outputs": [
        {
          "internalType": "string",
          "name": "",
          "type": "string"
        }
      ],
      "stateMutability": "view",
      "type": "function"
    },
    {
      "inputs": [
        {
          "internalType": "uint256",
          "name": "",
          "type": "uint256"
        }
      ],
      "name": "timeStaking",
      "outputs": [
        {
          "internalType": "uint256",
          "name": "",
          "type": "uint256"
        }
      ],
      "stateMutability": "view",
      "type": "function"
    },
    {
      "inputs": [
        {
          "internalType": "uint256",
          "name": "_tokenId",
          "type": "uint256"
        }
      ],
      "name": "timeStakingOf",
      "outputs": [
        {
          "internalType": "uint256",
          "name": "",
          "type": "uint256"
        }
      ],
      "stateMutability": "view",
      "type": "function"
    },
    {
      "inputs": [
        {
          "internalType": "address",
          "name": "_owner",
          "type": "address"
        },
        {
          "internalType": "uint256",
          "name": "_index",
          "type": "uint256"
        }
      ],
      "name": "tokenOfOwnerByIndex",
      "outputs": [
        {
          "internalType": "uint256",
          "name": "",
          "type": "uint256"
        }
      ],
      "stateMutability": "view",
      "type": "function"
    },
    {
      "inputs": [
        {
          "internalType": "uint256",
          "name": "_tokenId",
          "type": "uint256"
        }
      ],
      "name": "tokenURI",
      "outputs": [
        {
          "internalType": "string",
          "name": "",
          "type": "string"
        }
      ],
      "stateMutability": "view",
      "type": "function"
    },
    {
      "inputs": [
        {
          "internalType": "address",
          "name": "_owner",
          "type": "address"
        }
      ],
      "name": "tokensOfOwner",
      "outputs": [
        {
          "internalType": "uint256[]",
          "name": "",
          "type": "uint256[]"
        }
      ],
      "stateMutability": "view",
      "type": "function"
    },
    {
      "inputs": [],
      "name": "totalSupply",
      "outputs": [
        {
          "internalType": "uint256",
          "name": "",
          "type": "uint256"
        }
      ],
      "stateMutability": "view",
      "type": "function"
    },
    {
      "inputs": [
        {
          "internalType": "address",
          "name": "from",
          "type": "address"
        },
        {
          "internalType": "address",
          "name": "to",
          "type": "address"
        },
        {
          "internalType": "uint256",
          "name": "tokenId",
          "type": "uint256"
        }
      ],
      "name": "transferFrom",
      "outputs": [],
      "stateMutability": "payable",
      "type": "function"
    },
    {
      "inputs": [
        {
          "internalType": "address",
          "name": "newOwner",
          "type": "address"
        }
      ],
      "name": "transferOwnership",
      "outputs": [],
      "stateMutability": "nonpayable",
      "type": "function"
    },
    {
      "inputs": [
        {
          "internalType": "uint256",
          "name": "_tokenId",
          "type": "uint256"
        }
      ],
      "name": "unstaking",
      "outputs": [],
      "stateMutability": "nonpayable",
      "type": "function"
    },
    {
      "inputs": [
        {
          "internalType": "address",
          "name": "_owner",
          "type": "address"
        }
      ],
      "name": "walletOfOwner",
      "outputs": [
        {
          "internalType": "uint256[]",
          "name": "",
          "type": "uint256[]"
        }
      ],
      "stateMutability": "view",
      "type": "function"
    },
    {
      "inputs": [
        {
          "internalType": "address",
          "name": "",
          "type": "address"
        }
      ],
      "name": "whitelistClaimed",
      "outputs": [
        {
          "internalType": "bool",
          "name": "",
          "type": "bool"
        }
      ],
      "stateMutability": "view",
      "type": "function"
    },
    {
      "inputs": [
        {
          "internalType": "uint256",
          "name": "_mintAmount",
          "type": "uint256"
        },
        {
          "internalType": "bytes32[]",
          "name": "_merkleProof",
          "type": "bytes32[]"
        }
      ],
      "name": "whitelistMint",
      "outputs": [],
      "stateMutability": "payable",
      "type": "function"
    },
    {
      "inputs": [],
      "name": "whitelistMintEnabled",
      "outputs": [
        {
          "internalType": "bool",
          "name": "",
          "type": "bool"
        }
      ],
      "stateMutability": "view",
      "type": "function"
    },
    {
      "inputs": [],
      "name": "withdraw",
      "outputs": [],
      "stateMutability": "nonpayable",
      "type": "function"
    }
  ],
  "bytecode": "0x60806040526000601160006101000a81548160ff0219169083151502179055503480156200002c57600080fd5b506040518060400160405280600d81526020017f4143454e44414e542042425641000000000000000000000000000000000000008152506040518060400160405280600381526020017f41564100000000000000000000000000000000000000000000000000000000008152508160029081620000aa91906200046a565b508060039081620000bc91906200046a565b50620000cd6200011960201b60201c565b6000819055505050620000f5620000e96200012260201b60201c565b6200012a60201b60201c565b6001600981905550660221b262dd8000600f81905550603260108190555062000551565b60006001905090565b600033905090565b6000600860009054906101000a900473ffffffffffffffffffffffffffffffffffffffff16905081600860006101000a81548173ffffffffffffffffffffffffffffffffffffffff021916908373ffffffffffffffffffffffffffffffffffffffff1602179055508173ffffffffffffffffffffffffffffffffffffffff168173ffffffffffffffffffffffffffffffffffffffff167f8be0079c531659141344cd1fd0a4f28419497f9722a3daafe3b4186f6b6457e060405160405180910390a35050565b600081519050919050565b7f4e487b7100000000000000000000000000000000000000000000000000000000600052604160045260246000fd5b7f4e487b7100000000000000000000000000000000000000000000000000000000600052602260045260246000fd5b600060028204905060018216806200027257607f821691505b6020821081036200028857620002876200022a565b5b50919050565b60008190508160005260206000209050919050565b60006020601f8301049050919050565b600082821b905092915050565b600060088302620002f27fffffffffffffffffffffffffffffffffffffffffffffffffffffffffffffffff82620002b3565b620002fe8683620002b3565b95508019841693508086168417925050509392505050565b6000819050919050565b6000819050919050565b60006200034b620003456200033f8462000316565b62000320565b62000316565b9050919050565b6000819050919050565b62000367836200032a565b6200037f620003768262000352565b848454620002c0565b825550505050565b600090565b6200039662000387565b620003a38184846200035c565b505050565b5b81811015620003cb57620003bf6000826200038c565b600181019050620003a9565b5050565b601f8211156200041a57620003e4816200028e565b620003ef84620002a3565b81016020851015620003ff578190505b620004176200040e85620002a3565b830182620003a8565b50505b505050565b600082821c905092915050565b60006200043f600019846008026200041f565b1980831691505092915050565b60006200045a83836200042c565b9150826002028217905092915050565b6200047582620001f0565b67ffffffffffffffff811115620004915762000490620001fb565b5b6200049d825462000259565b620004aa828285620003cf565b600060209050601f831160018114620004e25760008415620004cd578287015190505b620004d985826200044c565b86555062000549565b601f198416620004f2866200028e565b60005b828110156200051c57848901518255600182019150602085019450602081019050620004f5565b868310156200053c578489015162000538601f8916826200042c565b8355505b6001600288020188555050505b505050505050565b6142f180620005616000396000f3fe6080604052600436106102465760003560e01c80638462151c11610139578063c87b56dd116100b6578063db4bec441161007a578063db4bec4414610860578063e2965f1f1461089d578063e985e9c5146108da578063ee46763414610917578063efbd73f414610940578063f2fde38b1461096957610246565b8063c87b56dd14610776578063c884ef83146107b3578063cb712535146107f0578063d2cab05614610819578063d5abeb011461083557610246565b8063964259f5116100fd578063964259f5146106af578063a0712d68146106ec578063a22cb46514610708578063b767a09814610731578063b88d4fde1461075a57610246565b80638462151c146105b657806386f50df5146105f35780638da5cb5b1461063057806390827da71461065b57806395d89b411461068457610246565b80632f745c59116101c75780636352211e1161018b5780636352211e146104d15780636caede3d1461050e57806370a0823114610539578063715018a6146105765780637cb647591461058d57610246565b80632f745c59146103fb5780633ccfd60b1461043857806342842e0e1461044f578063438b63001461046b57806344a0d68a146104a857610246565b806318160ddd1161020e57806318160ddd146103375780631dbb2a221461036257806320281a981461038b57806323b872dd146103b45780632eb4a7ab146103d057610246565b806301ffc9a71461024b57806306fdde0314610288578063081812fc146102b3578063095ea7b3146102f057806313faede61461030c575b600080fd5b34801561025757600080fd5b50610272600480360381019061026d9190612e29565b610992565b60405161027f9190612e71565b60405180910390f35b34801561029457600080fd5b5061029d610a24565b6040516102aa9190612f1c565b60405180910390f35b3480156102bf57600080fd5b506102da60048036038101906102d59190612f74565b610ab6565b6040516102e79190612fe2565b60405180910390f35b61030a60048036038101906103059190613029565b610b35565b005b34801561031857600080fd5b50610321610c79565b60405161032e9190613078565b60405180910390f35b34801561034357600080fd5b5061034c610c7f565b6040516103599190613078565b60405180910390f35b34801561036e57600080fd5b5061038960048036038101906103849190612f74565b610c96565b005b34801561039757600080fd5b506103b260048036038101906103ad9190612f74565b610d13565b005b6103ce60048036038101906103c99190613093565b610e71565b005b3480156103dc57600080fd5b506103e5611193565b6040516103f291906130ff565b60405180910390f35b34801561040757600080fd5b50610422600480360381019061041d9190613029565b611199565b60405161042f9190613078565b60405180910390f35b34801561044457600080fd5b5061044d611213565b005b61046960048036038101906104649190613093565b6112f0565b005b34801561047757600080fd5b50610492600480360381019061048d919061311a565b611310565b60405161049f9190613205565b60405180910390f35b3480156104b457600080fd5b506104cf60048036038101906104ca9190612f74565b611411565b005b3480156104dd57600080fd5b506104f860048036038101906104f39190612f74565b611423565b6040516105059190612fe2565b60405180910390f35b34801561051a57600080fd5b50610523611435565b6040516105309190612e71565b60405180910390f35b34801561054557600080fd5b50610560600480360381019061055b919061311a565b611448565b60405161056d9190613078565b60405180910390f35b34801561058257600080fd5b5061058b611500565b005b34801561059957600080fd5b506105b460048036038101906105af9190613253565b611514565b005b3480156105c257600080fd5b506105dd60048036038101906105d8919061311a565b611526565b6040516105ea9190613205565b60405180910390f35b3480156105ff57600080fd5b5061061a60048036038101906106159190612f74565b6115d4565b6040516106279190613078565b60405180910390f35b34801561063c57600080fd5b50610645611689565b6040516106529190612fe2565b60405180910390f35b34801561066757600080fd5b50610682600480360381019061067d9190612f74565b6116b3565b005b34801561069057600080fd5b50610699611789565b6040516106a69190612f1c565b60405180910390f35b3480156106bb57600080fd5b506106d660048036038101906106d19190612f74565b61181b565b6040516106e39190612e71565b60405180910390f35b61070660048036038101906107019190612f74565b61197f565b005b34801561071457600080fd5b5061072f600480360381019061072a91906132ac565b611a2d565b005b34801561073d57600080fd5b50610758600480360381019061075391906132ec565b611b38565b005b610774600480360381019061076f919061344e565b611b5d565b005b34801561078257600080fd5b5061079d60048036038101906107989190612f74565b611bd0565b6040516107aa9190612f1c565b60405180910390f35b3480156107bf57600080fd5b506107da60048036038101906107d5919061311a565b611c88565b6040516107e79190612e71565b60405180910390f35b3480156107fc57600080fd5b5061081760048036038101906108129190613093565b611ca8565b005b610833600480360381019061082e9190613531565b611da2565b005b34801561084157600080fd5b5061084a6120a4565b6040516108579190613078565b60405180910390f35b34801561086c57600080fd5b506108876004803603810190610882919061311a565b6120aa565b6040516108949190612e71565b60405180910390f35b3480156108a957600080fd5b506108c460048036038101906108bf9190612f74565b6120ca565b6040516108d19190613078565b60405180910390f35b3480156108e657600080fd5b5061090160048036038101906108fc9190613591565b6120e2565b60405161090e9190612e71565b60405180910390f35b34801561092357600080fd5b5061093e60048036038101906109399190612f74565b612176565b005b34801561094c57600080fd5b50610967600480360381019061096291906135d1565b612224565b005b34801561097557600080fd5b50610990600480360381019061098b919061311a565b6122d4565b005b60006301ffc9a760e01b827bffffffffffffffffffffffffffffffffffffffffffffffffffffffff191614806109ed57506380ac58cd60e01b827bffffffffffffffffffffffffffffffffffffffffffffffffffffffff1916145b80610a1d5750635b5e139f60e01b827bffffffffffffffffffffffffffffffffffffffffffffffffffffffff1916145b9050919050565b606060028054610a3390613640565b80601f0160208091040260200160405190810160405280929190818152602001828054610a5f90613640565b8015610aac5780601f10610a8157610100808354040283529160200191610aac565b820191906000526020600020905b815481529060010190602001808311610a8f57829003601f168201915b5050505050905090565b6000610ac182612357565b610af7576040517fcf4700e400000000000000000000000000000000000000000000000000000000815260040160405180910390fd5b6006600083815260200190815260200160002060000160009054906101000a900473ffffffffffffffffffffffffffffffffffffffff169050919050565b6000610b4082611423565b90508073ffffffffffffffffffffffffffffffffffffffff16610b616123b6565b73ffffffffffffffffffffffffffffffffffffffff1614610bc457610b8d81610b886123b6565b6120e2565b610bc3576040517fcfb3b94200000000000000000000000000000000000000000000000000000000815260040160405180910390fd5b5b826006600084815260200190815260200160002060000160006101000a81548173ffffffffffffffffffffffffffffffffffffffff021916908373ffffffffffffffffffffffffffffffffffffffff160217905550818373ffffffffffffffffffffffffffffffffffffffff168273ffffffffffffffffffffffffffffffffffffffff167f8c5be1e5ebec7d5bd14f71427d1e84f3dd0314c0f7b2291e5b200ac8c7c3b92560405160405180910390a4505050565b600f5481565b6000610c896123be565b6001546000540303905090565b610ca7610ca16123c7565b826123cf565b610ce6576040517f08c379a0000000000000000000000000000000000000000000000000000000008152600401610cdd906136e3565b60405180910390fd5b610cf8610cf1611689565b6000611a2d565b42600d60008381526020019081526020016000208190555050565b610d24610d1e6123c7565b826123cf565b610d63576040517f08c379a0000000000000000000000000000000000000000000000000000000008152600401610d5a906136e3565b60405180910390fd5b60001515600e6000610d736123c7565b73ffffffffffffffffffffffffffffffffffffffff1673ffffffffffffffffffffffffffffffffffffffff16815260200190815260200160002060009054906101000a900460ff16151514610dfd576040517f08c379a0000000000000000000000000000000000000000000000000000000008152600401610df490613775565b60405180910390fd5b610e0f610e086123c7565b6000611a2d565b6001600e6000610e1d6123c7565b73ffffffffffffffffffffffffffffffffffffffff1673ffffffffffffffffffffffffffffffffffffffff16815260200190815260200160002060006101000a81548160ff02191690831515021790555050565b6000610e7c826124ad565b90508373ffffffffffffffffffffffffffffffffffffffff168173ffffffffffffffffffffffffffffffffffffffff1614610ee3576040517fa114810000000000000000000000000000000000000000000000000000000000815260040160405180910390fd5b600080610eef84612579565b91509150610f058187610f006123b6565b6125a0565b610f5157610f1a86610f156123b6565b6120e2565b610f50576040517f59c896be00000000000000000000000000000000000000000000000000000000815260040160405180910390fd5b5b600073ffffffffffffffffffffffffffffffffffffffff168573ffffffffffffffffffffffffffffffffffffffff1603610fb7576040517fea553b3400000000000000000000000000000000000000000000000000000000815260040160405180910390fd5b610fc486868660016125e4565b8015610fcf57600082555b600560008773ffffffffffffffffffffffffffffffffffffffff1673ffffffffffffffffffffffffffffffffffffffff168152602001908152602001600020600081546001900391905081905550600560008673ffffffffffffffffffffffffffffffffffffffff1673ffffffffffffffffffffffffffffffffffffffff168152602001908152602001600020600081546001019190508190555061109d856110798888876125ea565b7c020000000000000000000000000000000000000000000000000000000017612612565b600460008681526020019081526020016000208190555060007c02000000000000000000000000000000000000000000000000000000008416036111235760006001850190506000600460008381526020019081526020016000205403611121576000548114611120578360046000838152602001908152602001600020819055505b5b505b838573ffffffffffffffffffffffffffffffffffffffff168773ffffffffffffffffffffffffffffffffffffffff167fddf252ad1be2c89b69c2b068fc378daa952ba7f163c4a11628f55a4df523b3ef60405160405180910390a461118b868686600161263d565b505050505050565b600a5481565b60006111a483611448565b82106111e5576040517f08c379a00000000000000000000000000000000000000000000000000000000081526004016111dc90613807565b60405180910390fd5b6111ee83612643565b8281548110611200576111ff613827565b5b9060005260206000200154905092915050565b61121b61268b565b600260095403611260576040517f08c379a0000000000000000000000000000000000000000000000000000000008152600401611257906138a2565b60405180910390fd5b60026009819055506000611272611689565b73ffffffffffffffffffffffffffffffffffffffff1647604051611295906138f3565b60006040518083038185875af1925050503d80600081146112d2576040519150601f19603f3d011682016040523d82523d6000602084013e6112d7565b606091505b50509050806112e557600080fd5b506001600981905550565b61130b83838360405180602001604052806000815250611b5d565b505050565b6060600061131d83611448565b905060008167ffffffffffffffff81111561133b5761133a613323565b5b6040519080825280602002602001820160405280156113695781602001602082028036833780820191505090505b50905060006113766123be565b90506000805b848210156114045761138d83611423565b90508673ffffffffffffffffffffffffffffffffffffffff168173ffffffffffffffffffffffffffffffffffffffff16036113f157828483815181106113d6576113d5613827565b5b60200260200101818152505081806113ed90613937565b9250505b82806113fc90613937565b93505061137c565b8395505050505050919050565b61141961268b565b80600f8190555050565b600061142e826124ad565b9050919050565b601160009054906101000a900460ff1681565b60008073ffffffffffffffffffffffffffffffffffffffff168273ffffffffffffffffffffffffffffffffffffffff16036114af576040517f8f4eb60400000000000000000000000000000000000000000000000000000000815260040160405180910390fd5b67ffffffffffffffff600560008473ffffffffffffffffffffffffffffffffffffffff1673ffffffffffffffffffffffffffffffffffffffff16815260200190815260200160002054169050919050565b61150861268b565b6115126000612709565b565b61151c61268b565b80600a8190555050565b6060600061153383611448565b905060008167ffffffffffffffff81111561155157611550613323565b5b60405190808252806020026020018201604052801561157f5781602001602082028036833780820191505090505b50905060005b828110156115c9576115978582611199565b8282815181106115aa576115a9613827565b5b60200260200101818152505080806115c190613937565b915050611585565b508092505050919050565b60006115df82612357565b61161e576040517f08c379a0000000000000000000000000000000000000000000000000000000008152600401611615906139f1565b60405180910390fd5b61162f6116296123c7565b836123cf565b61166e576040517f08c379a0000000000000000000000000000000000000000000000000000000008152600401611665906136e3565b60405180910390fd5b600d6000838152602001908152602001600020549050919050565b6000600860009054906101000a900473ffffffffffffffffffffffffffffffffffffffff16905090565b6116c46116be6123c7565b826123cf565b611703576040517f08c379a00000000000000000000000000000000000000000000000000000000081526004016116fa906136e3565b60405180910390fd5b62278d00600d6000838152602001908152602001600020541161175b576040517f08c379a000000000000000000000000000000000000000000000000000000000815260040161175290613a5d565b60405180910390fd5b61176d6117666123c7565b6001611a2d565b6000600d60008381526020019081526020016000208190555050565b60606003805461179890613640565b80601f01602080910402602001604051908101604052809291908181526020018280546117c490613640565b80156118115780601f106117e657610100808354040283529160200191611811565b820191906000526020600020905b8154815290600101906020018083116117f457829003601f168201915b5050505050905090565b600061182682612357565b611865576040517f08c379a000000000000000000000000000000000000000000000000000000000815260040161185c90613aef565b60405180910390fd5b6118766118706123c7565b836123cf565b6118b5576040517f08c379a00000000000000000000000000000000000000000000000000000000081526004016118ac906136e3565b60405180910390fd5b60001515600e60006118c56123c7565b73ffffffffffffffffffffffffffffffffffffffff1673ffffffffffffffffffffffffffffffffffffffff16815260200190815260200160002060009054906101000a900460ff1615151461194f576040517f08c379a000000000000000000000000000000000000000000000000000000000815260040161194690613775565b60405180910390fd5b61196161195a6123c7565b3084610e71565b6000600d600084815260200190815260200160002054119050919050565b600081116119c2576040517f08c379a00000000000000000000000000000000000000000000000000000000081526004016119b990613b5b565b60405180910390fd5b601054816119ce610c7f565b6119d89190613b7b565b1115611a19576040517f08c379a0000000000000000000000000000000000000000000000000000000008152600401611a1090613bfb565b60405180910390fd5b611a2a611a246123c7565b826127cf565b50565b8060076000611a3a6123b6565b73ffffffffffffffffffffffffffffffffffffffff1673ffffffffffffffffffffffffffffffffffffffff16815260200190815260200160002060008473ffffffffffffffffffffffffffffffffffffffff1673ffffffffffffffffffffffffffffffffffffffff16815260200190815260200160002060006101000a81548160ff0219169083151502179055508173ffffffffffffffffffffffffffffffffffffffff16611ae76123b6565b73ffffffffffffffffffffffffffffffffffffffff167f17307eab39ab6107e8899845ad3d59bd9653f200f220920489ca2b5937696c3183604051611b2c9190612e71565b60405180910390a35050565b611b4061268b565b80601160006101000a81548160ff02191690831515021790555050565b611b68848484610e71565b60008373ffffffffffffffffffffffffffffffffffffffff163b14611bca57611b93848484846127ed565b611bc9576040517fd1a57ed600000000000000000000000000000000000000000000000000000000815260040160405180910390fd5b5b50505050565b6060611bdb82612357565b611c1a576040517f08c379a0000000000000000000000000000000000000000000000000000000008152600401611c11906139f1565b60405180910390fd5b60006040518060600160405280603681526020016142866036913990506000815111611c555760405180602001604052806000815250611c80565b80611c5f8461293d565b604051602001611c70929190613ca3565b6040516020818303038152906040525b915050919050565b600e6020528060005260406000206000915054906101000a900460ff1681565b611cb9611cb36123c7565b826123cf565b611cf8576040517f08c379a0000000000000000000000000000000000000000000000000000000008152600401611cef906136e3565b60405180910390fd5b60001515600e6000611d086123c7565b73ffffffffffffffffffffffffffffffffffffffff1673ffffffffffffffffffffffffffffffffffffffff16815260200190815260200160002060009054906101000a900460ff16151514611d92576040517f08c379a0000000000000000000000000000000000000000000000000000000008152600401611d8990613d44565b60405180910390fd5b611d9d838383610e71565b505050565b60008311611de5576040517f08c379a0000000000000000000000000000000000000000000000000000000008152600401611ddc90613b5b565b60405180910390fd5b60105483611df1610c7f565b611dfb9190613b7b565b1115611e3c576040517f08c379a0000000000000000000000000000000000000000000000000000000008152600401611e3390613bfb565b60405180910390fd5b82600f54611e4a9190613d64565b341015611e8c576040517f08c379a0000000000000000000000000000000000000000000000000000000008152600401611e8390613df2565b60405180910390fd5b601160009054906101000a900460ff16611edb576040517f08c379a0000000000000000000000000000000000000000000000000000000008152600401611ed290613e84565b60405180910390fd5b600c6000611ee76123c7565b73ffffffffffffffffffffffffffffffffffffffff1673ffffffffffffffffffffffffffffffffffffffff16815260200190815260200160002060009054906101000a900460ff1615611f6f576040517f08c379a0000000000000000000000000000000000000000000000000000000008152600401611f6690613ef0565b60405180910390fd5b6000611f796123c7565b604051602001611f899190613f58565b604051602081830303815290604052805190602001209050611fef838380806020026020016040519081016040528093929190818152602001838360200280828437600081840152601f19601f82011690508083019250505050505050600a5483612a9d565b61202e576040517f08c379a000000000000000000000000000000000000000000000000000000000815260040161202590613fbf565b60405180910390fd5b6001600c600061203c6123c7565b73ffffffffffffffffffffffffffffffffffffffff1673ffffffffffffffffffffffffffffffffffffffff16815260200190815260200160002060006101000a81548160ff02191690831515021790555061209e6120986123c7565b856127cf565b50505050565b60105481565b600c6020528060005260406000206000915054906101000a900460ff1681565b600d6020528060005260406000206000915090505481565b6000600760008473ffffffffffffffffffffffffffffffffffffffff1673ffffffffffffffffffffffffffffffffffffffff16815260200190815260200160002060008373ffffffffffffffffffffffffffffffffffffffff1673ffffffffffffffffffffffffffffffffffffffff16815260200190815260200160002060009054906101000a900460ff16905092915050565b600081116121b9576040517f08c379a00000000000000000000000000000000000000000000000000000000081526004016121b090613b5b565b60405180910390fd5b601054816121c5610c7f565b6121cf9190613b7b565b1115612210576040517f08c379a000000000000000000000000000000000000000000000000000000000815260040161220790613bfb565b60405180910390fd5b61222161221b6123c7565b826127cf565b50565b61222c61268b565b6000821161226f576040517f08c379a000000000000000000000000000000000000000000000000000000000815260040161226690613b5b565b60405180910390fd5b6010548261227b610c7f565b6122859190613b7b565b11156122c6576040517f08c379a00000000000000000000000000000000000000000000000000000000081526004016122bd90613bfb565b60405180910390fd5b6122d081836127cf565b5050565b6122dc61268b565b600073ffffffffffffffffffffffffffffffffffffffff168173ffffffffffffffffffffffffffffffffffffffff160361234b576040517f08c379a000000000000000000000000000000000000000000000000000000000815260040161234290614051565b60405180910390fd5b61235481612709565b50565b6000816123626123be565b11158015612371575060005482105b80156123af575060007c0100000000000000000000000000000000000000000000000000000000600460008581526020019081526020016000205416145b9050919050565b600033905090565b60006001905090565b600033905090565b60006123da82612357565b612419576040517f08c379a000000000000000000000000000000000000000000000000000000000815260040161241090613aef565b60405180910390fd5b600061242483611423565b90508073ffffffffffffffffffffffffffffffffffffffff168473ffffffffffffffffffffffffffffffffffffffff16148061249357508373ffffffffffffffffffffffffffffffffffffffff1661247b84610ab6565b73ffffffffffffffffffffffffffffffffffffffff16145b806124a457506124a381856120e2565b5b91505092915050565b600080829050806124bc6123be565b11612542576000548110156125415760006004600083815260200190815260200160002054905060007c010000000000000000000000000000000000000000000000000000000082160361253f575b6000810361253557600460008360019003935083815260200190815260200160002054905061250b565b8092505050612574565b505b5b6040517fdf2d9b4200000000000000000000000000000000000000000000000000000000815260040160405180910390fd5b919050565b60008060006006600085815260200190815260200160002090508092508254915050915091565b600073ffffffffffffffffffffffffffffffffffffffff8316925073ffffffffffffffffffffffffffffffffffffffff821691508382148383141790509392505050565b50505050565b60008060e883901c905060e8612601868684612ab4565b62ffffff16901b9150509392505050565b600073ffffffffffffffffffffffffffffffffffffffff83169250814260a01b178317905092915050565b50505050565b6000600b60008373ffffffffffffffffffffffffffffffffffffffff1673ffffffffffffffffffffffffffffffffffffffff1681526020019081526020016000209050919050565b6126936123c7565b73ffffffffffffffffffffffffffffffffffffffff166126b1611689565b73ffffffffffffffffffffffffffffffffffffffff1614612707576040517f08c379a00000000000000000000000000000000000000000000000000000000081526004016126fe906140bd565b60405180910390fd5b565b6000600860009054906101000a900473ffffffffffffffffffffffffffffffffffffffff16905081600860006101000a81548173ffffffffffffffffffffffffffffffffffffffff021916908373ffffffffffffffffffffffffffffffffffffffff1602179055508173ffffffffffffffffffffffffffffffffffffffff168173ffffffffffffffffffffffffffffffffffffffff167f8be0079c531659141344cd1fd0a4f28419497f9722a3daafe3b4186f6b6457e060405160405180910390a35050565b6127e9828260405180602001604052806000815250612abd565b5050565b60008373ffffffffffffffffffffffffffffffffffffffff1663150b7a026128136123b6565b8786866040518563ffffffff1660e01b81526004016128359493929190614132565b6020604051808303816000875af192505050801561287157506040513d601f19601f8201168201806040525081019061286e9190614193565b60015b6128ea573d80600081146128a1576040519150601f19603f3d011682016040523d82523d6000602084013e6128a6565b606091505b5060008151036128e2576040517fd1a57ed600000000000000000000000000000000000000000000000000000000815260040160405180910390fd5b805181602001fd5b63150b7a0260e01b7bffffffffffffffffffffffffffffffffffffffffffffffffffffffff1916817bffffffffffffffffffffffffffffffffffffffffffffffffffffffff191614915050949350505050565b606060008203612984576040518060400160405280600181526020017f30000000000000000000000000000000000000000000000000000000000000008152509050612a98565b600082905060005b600082146129b657808061299f90613937565b915050600a826129af91906141ef565b915061298c565b60008167ffffffffffffffff8111156129d2576129d1613323565b5b6040519080825280601f01601f191660200182016040528015612a045781602001600182028036833780820191505090505b5090505b60008514612a9157600182612a1d9190614220565b9150600a85612a2c9190614254565b6030612a389190613b7b565b60f81b818381518110612a4e57612a4d613827565b5b60200101907effffffffffffffffffffffffffffffffffffffffffffffffffffffffffffff1916908160001a905350600a85612a8a91906141ef565b9450612a08565b8093505050505b919050565b600082612aaa8584612b5a565b1490509392505050565b60009392505050565b612ac78383612bb0565b60008373ffffffffffffffffffffffffffffffffffffffff163b14612b5557600080549050600083820390505b612b0760008683806001019450866127ed565b612b3d576040517fd1a57ed600000000000000000000000000000000000000000000000000000000815260040160405180910390fd5b818110612af4578160005414612b5257600080fd5b50505b505050565b60008082905060005b8451811015612ba557612b9082868381518110612b8357612b82613827565b5b6020026020010151612d6b565b91508080612b9d90613937565b915050612b63565b508091505092915050565b60008054905060008203612bf0576040517fb562e8dd00000000000000000000000000000000000000000000000000000000815260040160405180910390fd5b612bfd60008483856125e4565b600160406001901b178202600560008573ffffffffffffffffffffffffffffffffffffffff1673ffffffffffffffffffffffffffffffffffffffff16815260200190815260200160002060008282540192505081905550612c7483612c6560008660006125ea565b612c6e85612d96565b17612612565b6004600083815260200190815260200160002081905550600080838301905073ffffffffffffffffffffffffffffffffffffffff85169150828260007fddf252ad1be2c89b69c2b068fc378daa952ba7f163c4a11628f55a4df523b3ef600080a4600183015b818114612d1557808360007fddf252ad1be2c89b69c2b068fc378daa952ba7f163c4a11628f55a4df523b3ef600080a4600181019050612cda565b5060008203612d50576040517f2e07630000000000000000000000000000000000000000000000000000000000815260040160405180910390fd5b806000819055505050612d66600084838561263d565b505050565b6000818310612d8357612d7e8284612da6565b612d8e565b612d8d8383612da6565b5b905092915050565b60006001821460e11b9050919050565b600082600052816020526040600020905092915050565b6000604051905090565b600080fd5b600080fd5b60007fffffffff0000000000000000000000000000000000000000000000000000000082169050919050565b612e0681612dd1565b8114612e1157600080fd5b50565b600081359050612e2381612dfd565b92915050565b600060208284031215612e3f57612e3e612dc7565b5b6000612e4d84828501612e14565b91505092915050565b60008115159050919050565b612e6b81612e56565b82525050565b6000602082019050612e866000830184612e62565b92915050565b600081519050919050565b600082825260208201905092915050565b60005b83811015612ec6578082015181840152602081019050612eab565b60008484015250505050565b6000601f19601f8301169050919050565b6000612eee82612e8c565b612ef88185612e97565b9350612f08818560208601612ea8565b612f1181612ed2565b840191505092915050565b60006020820190508181036000830152612f368184612ee3565b905092915050565b6000819050919050565b612f5181612f3e565b8114612f5c57600080fd5b50565b600081359050612f6e81612f48565b92915050565b600060208284031215612f8a57612f89612dc7565b5b6000612f9884828501612f5f565b91505092915050565b600073ffffffffffffffffffffffffffffffffffffffff82169050919050565b6000612fcc82612fa1565b9050919050565b612fdc81612fc1565b82525050565b6000602082019050612ff76000830184612fd3565b92915050565b61300681612fc1565b811461301157600080fd5b50565b60008135905061302381612ffd565b92915050565b600080604083850312156130405761303f612dc7565b5b600061304e85828601613014565b925050602061305f85828601612f5f565b9150509250929050565b61307281612f3e565b82525050565b600060208201905061308d6000830184613069565b92915050565b6000806000606084860312156130ac576130ab612dc7565b5b60006130ba86828701613014565b93505060206130cb86828701613014565b92505060406130dc86828701612f5f565b9150509250925092565b6000819050919050565b6130f9816130e6565b82525050565b600060208201905061311460008301846130f0565b92915050565b6000602082840312156131305761312f612dc7565b5b600061313e84828501613014565b91505092915050565b600081519050919050565b600082825260208201905092915050565b6000819050602082019050919050565b61317c81612f3e565b82525050565b600061318e8383613173565b60208301905092915050565b6000602082019050919050565b60006131b282613147565b6131bc8185613152565b93506131c783613163565b8060005b838110156131f85781516131df8882613182565b97506131ea8361319a565b9250506001810190506131cb565b5085935050505092915050565b6000602082019050818103600083015261321f81846131a7565b905092915050565b613230816130e6565b811461323b57600080fd5b50565b60008135905061324d81613227565b92915050565b60006020828403121561326957613268612dc7565b5b60006132778482850161323e565b91505092915050565b61328981612e56565b811461329457600080fd5b50565b6000813590506132a681613280565b92915050565b600080604083850312156132c3576132c2612dc7565b5b60006132d185828601613014565b92505060206132e285828601613297565b9150509250929050565b60006020828403121561330257613301612dc7565b5b600061331084828501613297565b91505092915050565b600080fd5b600080fd5b7f4e487b7100000000000000000000000000000000000000000000000000000000600052604160045260246000fd5b61335b82612ed2565b810181811067ffffffffffffffff8211171561337a57613379613323565b5b80604052505050565b600061338d612dbd565b90506133998282613352565b919050565b600067ffffffffffffffff8211156133b9576133b8613323565b5b6133c282612ed2565b9050602081019050919050565b82818337600083830152505050565b60006133f16133ec8461339e565b613383565b90508281526020810184848401111561340d5761340c61331e565b5b6134188482856133cf565b509392505050565b600082601f83011261343557613434613319565b5b81356134458482602086016133de565b91505092915050565b6000806000806080858703121561346857613467612dc7565b5b600061347687828801613014565b945050602061348787828801613014565b935050604061349887828801612f5f565b925050606085013567ffffffffffffffff8111156134b9576134b8612dcc565b5b6134c587828801613420565b91505092959194509250565b600080fd5b600080fd5b60008083601f8401126134f1576134f0613319565b5b8235905067ffffffffffffffff81111561350e5761350d6134d1565b5b60208301915083602082028301111561352a576135296134d6565b5b9250929050565b60008060006040848603121561354a57613549612dc7565b5b600061355886828701612f5f565b935050602084013567ffffffffffffffff81111561357957613578612dcc565b5b613585868287016134db565b92509250509250925092565b600080604083850312156135a8576135a7612dc7565b5b60006135b685828601613014565b92505060206135c785828601613014565b9150509250929050565b600080604083850312156135e8576135e7612dc7565b5b60006135f685828601612f5f565b925050602061360785828601613014565b9150509250929050565b7f4e487b7100000000000000000000000000000000000000000000000000000000600052602260045260246000fd5b6000600282049050600182168061365857607f821691505b60208210810361366b5761366a613611565b5b50919050565b7f4552433732314275726e61626c653a2063616c6c6572206973206e6f74206f7760008201527f6e6572206e6f7220617070726f76656400000000000000000000000000000000602082015250565b60006136cd603083612e97565b91506136d882613671565b604082019050919050565b600060208201905081810360008301526136fc816136c0565b9050919050565b7f596f75206861766520616c726561647920636c61696d656420796f757220726560008201527f7761726421000000000000000000000000000000000000000000000000000000602082015250565b600061375f602583612e97565b915061376a82613703565b604082019050919050565b6000602082019050818103600083015261378e81613752565b9050919050565b7f455243373231456e756d657261626c653a206f776e657220696e646578206f7560008201527f74206f6620626f756e6473000000000000000000000000000000000000000000602082015250565b60006137f1602b83612e97565b91506137fc82613795565b604082019050919050565b60006020820190508181036000830152613820816137e4565b9050919050565b7f4e487b7100000000000000000000000000000000000000000000000000000000600052603260045260246000fd5b7f5265656e7472616e637947756172643a207265656e7472616e742063616c6c00600082015250565b600061388c601f83612e97565b915061389782613856565b602082019050919050565b600060208201905081810360008301526138bb8161387f565b9050919050565b600081905092915050565b50565b60006138dd6000836138c2565b91506138e8826138cd565b600082019050919050565b60006138fe826138d0565b9150819050919050565b7f4e487b7100000000000000000000000000000000000000000000000000000000600052601160045260246000fd5b600061394282612f3e565b91507fffffffffffffffffffffffffffffffffffffffffffffffffffffffffffffffff820361397457613973613908565b5b600182019050919050565b7f4552433732314d657461646174613a2055524920717565727920666f72206e6f60008201527f6e6578697374656e7420746f6b656e0000000000000000000000000000000000602082015250565b60006139db602f83612e97565b91506139e68261397f565b604082019050919050565b60006020820190508181036000830152613a0a816139ce565b9050919050565b7f596f752063616e206e6f7420756e7374616b696e672079657400000000000000600082015250565b6000613a47601983612e97565b9150613a5282613a11565b602082019050919050565b60006020820190508181036000830152613a7681613a3a565b9050919050565b7f4552433732313a206f70657261746f7220717565727920666f72206e6f6e657860008201527f697374656e7420746f6b656e0000000000000000000000000000000000000000602082015250565b6000613ad9602c83612e97565b9150613ae482613a7d565b604082019050919050565b60006020820190508181036000830152613b0881613acc565b9050919050565b7f496e76616c6964206d696e7420616d6f756e7421000000000000000000000000600082015250565b6000613b45601483612e97565b9150613b5082613b0f565b602082019050919050565b60006020820190508181036000830152613b7481613b38565b9050919050565b6000613b8682612f3e565b9150613b9183612f3e565b9250828201905080821115613ba957613ba8613908565b5b92915050565b7f4d617820737570706c7920657863656564656421000000000000000000000000600082015250565b6000613be5601483612e97565b9150613bf082613baf565b602082019050919050565b60006020820190508181036000830152613c1481613bd8565b9050919050565b600081905092915050565b6000613c3182612e8c565b613c3b8185613c1b565b9350613c4b818560208601612ea8565b80840191505092915050565b7f2e6a736f6e000000000000000000000000000000000000000000000000000000600082015250565b6000613c8d600583613c1b565b9150613c9882613c57565b600582019050919050565b6000613caf8285613c26565b9150613cbb8284613c26565b9150613cc682613c80565b91508190509392505050565b7f596f7520646f6e742068617665207065726d697373696f6e20746f207472616e60008201527f73666572207468697320746f6b656e2100000000000000000000000000000000602082015250565b6000613d2e603083612e97565b9150613d3982613cd2565b604082019050919050565b60006020820190508181036000830152613d5d81613d21565b9050919050565b6000613d6f82612f3e565b9150613d7a83612f3e565b9250828202613d8881612f3e565b91508282048414831517613d9f57613d9e613908565b5b5092915050565b7f496e73756666696369656e742066756e64732100000000000000000000000000600082015250565b6000613ddc601383612e97565b9150613de782613da6565b602082019050919050565b60006020820190508181036000830152613e0b81613dcf565b9050919050565b7f5468652077686974656c6973742073616c65206973206e6f7420656e61626c6560008201527f6421000000000000000000000000000000000000000000000000000000000000602082015250565b6000613e6e602283612e97565b9150613e7982613e12565b604082019050919050565b60006020820190508181036000830152613e9d81613e61565b9050919050565b7f4164647265737320616c726561647920636c61696d6564210000000000000000600082015250565b6000613eda601883612e97565b9150613ee582613ea4565b602082019050919050565b60006020820190508181036000830152613f0981613ecd565b9050919050565b60008160601b9050919050565b6000613f2882613f10565b9050919050565b6000613f3a82613f1d565b9050919050565b613f52613f4d82612fc1565b613f2f565b82525050565b6000613f648284613f41565b60148201915081905092915050565b7f496e76616c69642070726f6f6621000000000000000000000000000000000000600082015250565b6000613fa9600e83612e97565b9150613fb482613f73565b602082019050919050565b60006020820190508181036000830152613fd881613f9c565b9050919050565b7f4f776e61626c653a206e6577206f776e657220697320746865207a65726f206160008201527f6464726573730000000000000000000000000000000000000000000000000000602082015250565b600061403b602683612e97565b915061404682613fdf565b604082019050919050565b6000602082019050818103600083015261406a8161402e565b9050919050565b7f4f776e61626c653a2063616c6c6572206973206e6f7420746865206f776e6572600082015250565b60006140a7602083612e97565b91506140b282614071565b602082019050919050565b600060208201905081810360008301526140d68161409a565b9050919050565b600081519050919050565b600082825260208201905092915050565b6000614104826140dd565b61410e81856140e8565b935061411e818560208601612ea8565b61412781612ed2565b840191505092915050565b60006080820190506141476000830187612fd3565b6141546020830186612fd3565b6141616040830185613069565b818103606083015261417381846140f9565b905095945050505050565b60008151905061418d81612dfd565b92915050565b6000602082840312156141a9576141a8612dc7565b5b60006141b78482850161417e565b91505092915050565b7f4e487b7100000000000000000000000000000000000000000000000000000000600052601260045260246000fd5b60006141fa82612f3e565b915061420583612f3e565b925082614215576142146141c0565b5b828204905092915050565b600061422b82612f3e565b915061423683612f3e565b925082820390508181111561424e5761424d613908565b5b92915050565b600061425f82612f3e565b915061426a83612f3e565b92508261427a576142796141c0565b5b82820690509291505056fe697066733a2f2f516d545874534d32425354486e4474794b7750644b59455644567a64554c726659583850504a54314853745454752fa26469706673582212206a1f0c1fdc42d1b21f59d94b9ce5002b7f59f3f9822e282fe8d5b2b8d8237c5264736f6c63430008110033",
  "linkReferences": {},
  "deployedLinkReferences": {}
}